:060000000A128A11D02F44
:100008000800013400346E3083120313A700A501E1
:10001800A60183280A128A155E230A128A118312FE
:100028000313A80034302806031D1B281C284A285F
:100038002408840083130008031923282428282867
:1000480024088400013080022308F6002408840074
:100058000008F70022080A128A1153230A128A118B
:10006800831203132808A700D030FB00C930FA0018
:10007800FA0B3C28FB0B3C28412850308312031311
:10008800A5070318A60A0030A607722836302806E6
:10009800031D4F2850286A28240884000E30831333
:1000A80000020318582859285D28240884000130C4
:1000B80080072308F600240884000008F7002208B7
:1000C8000A128A1153230A128A1134282A30280660
:1000D800031D6F28702872282A308E281A30FB00DA
:1000E800F830FA00FA0B7628FB0B762800000A3065
:1000F80083120313A5070318A60A0030A6072108D0
:100108002602031D892820082502031C8C288D2817
:100118000E282708080072087304031994289528E4
:100128009B2872087304031D9A289B28A22870082C
:100138000A128A1104200A128A1128297208093E13
:10014800F40073080318013E003EF50074088400AB
:100158008317751C83130008F600840A0008F7004B
:10016800760877040319B928BA28EC287208093EDA
:10017800F40073080318013E003EF500740884007B
:100188008317751C83130008F600840A0008F7001B
:100198007208023EF80073080318013E003EF90099
:1001A800780884008317791C83130008FA00840AEE
:1001B8000008FB007B08803AFC007708803A7C0244
:1001C800031DE82876087A020318EB28EC2828296A
:1001D800720884008317731C83130008F400840AD0
:1001E8000008F5007208023EF60073080318013E85
:1001F800003EF700760884008317771C83130008F5
:100208007407F9007508F8000318F80A801F0D290B
:10021800F8037808FA007908840083177A1C831396
:10022800700880007208023EF40073080318013E4B
:10023800003EF500740884008317751C8313013091
:100248008007840A0318800A080060308400760852
:1002580083138000840A77088000840A7808800065
:10026800840A79088000840A7A08800000308312A2
:1002780003136106031D422905306006031D452945
:1002880046294A298316031385016529003061062A
:10029800031D502906306006031D53295429582987
:1002A800831603138601652900306106031D5E2944
:1002B80007306006031D61296229D42983160313B8
:1002C80087011A30FC00F830FB00FB0B6929FC0B96
:1002D8006929000003300A128A1569260A128A1150
:1002E8000730FC007D30FB00FB0B7829FC0B7829DC
:1002F80003300A128A1569260A128A111530FC0081
:10030800C630FB00FB0B8629FC0B86290000033056
:100318000A128A1569260A128A1102300A128A15E7
:1003280069260A128A1102300A128A1569260A12E7
:100338008A1108300A128A1569260A128A110030B1
:100348000A128A1569260A128A1106300A128A15B3
:1003580069260A128A110830FD007D157D08FB0008
:1003680004300310FB0CFF3E031DB5297B080F3931
:100378000A128A1569260A128A117D080F390A128B
:100388008A1569260A128A1100300A128A15692606
:100398000A128A1101300A128A1569260A128A116C
:1003A8000800F200721CD929DA29EF2983120313F5
:1003B800600884008317611C83130130F000630810
:1003C8000739013EE9290310F00DFF3E031DE72917
:1003D80070088004042A83120313600884008317BA
:1003E800611C83130130F00063080739013EFE29C0
:1003F8000310F00DFF3E031DFC297008FF3A80052D
:10040800F21C072A082A1E2A600884008317611C28
:1004180083130130F000630CF100F10C710C073903
:10042800013E182A0310F00DFF3E031D162A70081E
:100438008004342A600884008317611C8313013008
:10044800F000630CF100F10C710C0739013E2E2A03
:100458000310F00DFF3E031D2C2A7008FF3A80059B
:10046800721D372A382A4B2A600884008317611CBA
:1004780083130130F00064080739013E452A031050
:10048800F00DFF3E031D432A700880045E2A6008B1
:1004980084008317611C83130130F0006408073956
:1004A800013E582A0310F00DFF3E031D562A70081E
:1004B800FF3A8005F21D612A622A782A60088400C2
:1004C8008317611C83130130F000640CF100F10CF8
:1004D800710C0739013E722A0310F00DFF3E031D0F
:1004E800702A700880048E2A600884008317611CB3
:1004F80083130130F000640CF100F10C710C073922
:10050800013E882A0310F00DFF3E031D862A70085D
:10051800FF3A8005080083120313220884000008AC
:1005280084000A128A150A200A128A11253A031D24
:100538009E2A9F2A392B2208840001308007E50172
:10054800E6010030E900FF30E700FF30E80022084C
:1005580084000008AA002A0884000A128A150A20C2
:100568000A128A11753A031DBA2ABB2A322B2308AC
:10057800840083130008A400023080072408840044
:100588000008A600840A0008A700220884002A0898
:10059800013E8000272B2030AB000130AB022B0836
:1005A800903E84000A30F0000030F1002708F30084
:1005B8002608F2000A128A1509250A128A117008FB
:1005C800303E831780000A30F0000030F1008312BB
:1005D80003132708F3002608F2000A128A15832558
:1005E8000A128A11710883120313A7007008A60063
:1005F800260827040319012B022B202B2B08031D87
:10060800062B072BD12A202B2B08903E840083171A
:100618000008A400A5012408F0002508F10020081E
:10062800F2002108F3000A128A118F200A128A1197
:10063800013083120313AB0720302B06031D252B33
:10064800262B082B522B2A0884000A128A150A2006
:100658000A128A11753A0319CF2A322B831203130F
:100668002208840001308007522B220884000008E9
:1006780084000A128A150A200A128A11A400A50108
:100688002408F0002508F1002008F2002108F300F2
:100698000A128A118F200A128A11322B0800F900D7
:1006A80000300A128A1569260A128A1101300A12C4
:1006B8008A1569260A128A117708C03EF8000430A4
:1006C8000310F80CFF3E031D642B78080F390A123B
:1006D8008A1569260A128A117708C03E0F390A124C
:1006E8008A1569260A128A1101300A128A156E279C
:1006F8000A128A117708C13EF80004300310F80C7A
:10070800FF3E031D822B78080F390A128A156926C5
:100718000A128A117708C13E0F390A128A1569260A
:100728000A128A1101300A128A156E270A128A11D2
:100738007608031DA02BA12BBA2B7908803EF80060
:1007480004300310F80CFF3E031DA52B78080F3961
:100758000A128A1569260A128A117908803E0F3909
:100768000A128A1569260A128A11152C7603031DA6
:10077800BE2BBF2BD82B7908C03EF80004300310DD
:10078800F80CFF3E031DC32B78080F390A128A158F
:1007980069260A128A117908C03E0F390A128A1589
:1007A80069260A128A11152C02307606031DDD2BE4
:1007B800DE2BF72B7908943EF80004300310F80C70
:1007C800FF3E031DE22B78080F390A128A156926A5
:1007D8000A128A117908943E0F390A128A15692675
:1007E8000A128A11152C03307606031DFC2BFD2BEB
:1007F800152C7908D43EF80004300310F80CFF3E9D
:10080800031D012C78080F390A128A1569260A1265
:100818008A117908D43E0F390A128A1569260A12F4
:100828008A1100300A128A156E270A128A110800E6
:1008380083120313CC00D00100300A128A156926EE
:100848000A128A1101300A128A1569260A128A11B7
:1008580083120313501C312C322C372C0330CD005B
:100868000030CE003B2C0230CD000030CE004D08C9
:10087800CF00D1015108803EC10004300310C10CE3
:10088800FF3E031D422C41080F390A128A156926BA
:100898000A128A11831203135108803E0F390A1273
:1008A8008A1569260A128A11831203134F080A123D
:1008B8008A156E270A128A11831203135108C13E42
:1008C800C10004300310C10CFF3E031D662C410813
:1008D8000F390A128A1569260A128A11831203131C
:1008E8005108C13E0F390A128A1569260A128A115F
:1008F800831203134F080A128A156E270A128A11E7
:10090800023083120313D10710305102031C8D2CBF
:100918008E2C3E2C043083120313C3000C30C2000B
:100928003330C100C10B962CC20B962CC30B962CEE
:10093800013083120313D00706305002031CA52C84
:10094800A62C202C00300A128A1569260A128A1150
:1009580001300A128A1569260A128A1108300A1209
:100968008A1569260A128A1101300A128A1569261F
:100978000A128A111130F6008030F7000A128A151F
:1009880041250A128A110C300A128A1569260A12A0
:100998008A1103300A128A1569260A128A1144300C
:1009A80083120313B0004330B1004C08C100C201E8
:1009B8004108B2004208B3000A128A15BC230A1281
:1009C8008A114430F6000030F7000A128A154125D2
:1009D8000A128A11080083120313061086140615DA
:1009E8008615061AF82CF92C0A2D8230F100DD3014
:1009F800F000F00BFD2CF10BFD2C022D83120313DC
:100A0800061E072D082D022D3130522E861A0D2D67
:100A18000E2D1F2D8230F100DD30F000F00B122D6D
:100A2800F10B122D172D83120313861E1C2D1D2D5D
:100A3800172D3230522E061B222D232D342D8230B5
:100A4800F100DD30F000F00B272DF10B272D2C2DB8
:100A580083120313061F312D322D2C2D3330522EC5
:100A6800861B372D382D492D8230F100DD30F000FE
:100A7800F00B3C2DF10B3C2D412D83120313861FE7
:100A8800462D472D412D4130522E0614861006154D
:100A98008615061A502D512D622D8230F100DD3059
:100AA800F000F00B552DF10B552D5A2D8312031321
:100AB800061E5F2D602D5A2D3430522E861A652D54
:100AC800662D772D8230F100DD30F000F00B6A2DB5
:100AD800F10B6A2D6F2D83120313861E742D752D4D
:100AE8006F2D3530522E061B7A2D7B2D8C2D8230A2
:100AF800F100DD30F000F00B7F2DF10B7F2D842D00
:100B080083120313061F892D8A2D842D3630522E09
:100B1800861B8F2D902DA12D8230F100DD30F00045
:100B2800F00B942DF10B942D992D83120313861F2E
:100B38009E2D9F2D992D4230522E06148614061193
:100B48008615061AA82DA92DBA2D8230F100DD30A0
:100B5800F000F00BAD2DF10BAD2DB22D8312031368
:100B6800061EB72DB82DB22D3730522E861ABD2D40
:100B7800BE2DCF2D8230F100DD30F000F00BC22DFC
:100B8800F10BC22DC72D83120313861ECC2DCD2D3C
:100B9800C72D3830522E061BD22DD32DE42D82308E
:100BA800F100DD30F000F00BD72DF10BD72DDC2D47
:100BB80083120313061FE12DE22DDC2D3930522E4E
:100BC800861BE72DE82DF92D8230F100DD30F0008D
:100BD800F00BEC2DF10BEC2DF12D83120313861F76
:100BE800F62DF72DF12D4330522E061486140615D6
:100BF8008611061A002E012E122E8230F100DD30E9
:100C0800F000F00B052EF10B052E0A2E83120313AC
:100C1800061E0F2E102E0A2E2A30522E861A152E38
:100C2800162E272E8230F100DD30F000F00B1A2E40
:100C3800F10B1A2E1F2E83120313861E242E252E27
:100C48001F2E3030522E061B2A2E2B2E3C2E823081
:100C5800F100DD30F000F00B2F2EF10B2F2E342E8B
:100C680083120313061F392E3A2E342E2330522EA8
:100C7800861B3F2E402E512E8230F100DD30F000D1
:100C8800F00B442EF10B442E492E83120313861FBA
:100C98004E2E4F2E492E4430522E6E3008008316A9
:100CA80003178801890183160313850188018312BC
:100CB80003138501FF3088008730831603138100F2
:100CC8000A128A1569230A128A115530840083167C
:100CD80003132A0883138000840A2B088000840ADF
:100CE8002C088000840A2D088000840A2E088000C1
:100CF800763084008312031355088000840A56084E
:100D08008000840A57088000840A58088000840AF2
:100D1800590880000A128A1129210A128A110A1216
:100D28008A154E240A128A115E30F9005B30FA00E7
:100D38005D30FB005C30FC005F30FD000A128A1554
:100D480077240A128A1100300A128A1569260A12B3
:100D58008A1101300A128A1569260A128A11083086
:100D68000A128A1569260A128A1102300A128A158D
:100D780069260A128A112030F6008030F7000A121C
:100D88008A1541250A128A110C300A128A15692619
:100D98000A128A1101300A128A1569260A128A1162
:100DA8000130F6008030F7000A128A1541250A1230
:100DB8008A11153083120313D4004B30D300BD3091
:100DC800D200D20BE52ED30BE52ED40BE52EEC2E5C
:100DD800831203135C08F6005F08F7005D080A1227
:100DE8008A1153230A128A11831203135E080A1206
:100DF8008A1517260A128A11710883120313A10093
:100E08007008A0005D08A2005C08A3005F30A40081
:100E18000A128A1107200A128A1183120313DA00B0
:100E28002A305A06031D192F1A2F1B2F982E5C08DB
:100E3800031D1F2F202F232F0130DC00EC2E5F080D
:100E48005D02031C282F292F702F5F08013ED20056
:100E5800003003180130D3005308803AD4008030A2
:100E68005402031D392F5D085202031C3C2F3D2FED
:100E7800702F013083120313DE070A30F0000030B0
:100E8800F1005E08D200D3015208F2005308F300C3
:100E98000A128A15BE260A128A1170080A128A15C1
:100EA80054230A128A110A30831203135E02031CA8
:100EB8005E2F5F2FC22F5E080A128A111C240A12A5
:100EC8008A110A128A1578230A128A112A3A031DEE
:100ED8006E2F6F2F652F982E013083120313DB02BC
:100EE8005B080A128A1529240A128A1100300A128C
:100EF8008A1569260A128A1101300A128A1569268A
:100F08000A128A1108300A128A1569260A128A11E9
:100F180004300A128A1569260A128A112C30F60042
:100F28008030F7000A128A1541250A128A11073003
:100F380083120313D4001730D3006930D200D20BC8
:100F4800A32FD30BA32FD40BA32FAA2F83120313E2
:100F58005B08031DB02FB12FC22F5E080A128A1535
:100F6800C5250A128A110A128A1578230A128A11CB
:100F78002A3A031DC02FC12FB72F982E10300A12FE
:100F88008A15A2240A128A1183120313DD00DC01D8
:100F9800EC2E0A128A1100288313D730FD000C307A
:100FA800FE00D230FF00A03084000A128A158D237B
:100FB8000A128A110A128A1105200A128A11EA00F5
:100FC8000A128A1106200A128A11EB008317903040
:100FD8008400B0300A128A154C230A128A1183132E
:100FE800603084006A300A128A154C230A128A116A
:100FF80083010A128A11532EFF1B0A2883137F18B4
:1010080083170008840A0319FF0A080008308A00B9
:101018000408840A8207003434343D344C3465347F
:10102800663474342034203436343D3452346934D0
:1010380067346834743400342A342A3420345934F8
:101048004F3455342034573449344E342134203405
:101058002A342A3400344334413454344334483431
:101068002034473441344D344534213400342D3450
:101078002D3420344D3449345334533421342034FE
:101088002D342D340034473441344D344534203424
:101098004F34563445345234203400345334633496
:1010A8006F34723465343A3420342534753400345E
:1016980064008001840A04060319003404064D2BF3
:1016A800F6007608A03E8400831300098312031312
:1016B800880008000A128A11EF240A128A150A12F1
:1016C8008A159C230A128A150800831203138601BF
:1016D800F0308316031386008316031789017F30C1
:1016E80083160313810508006E30F200812B0A125D
:1016F8008A11EF240A128A15F2006E307206031955
:10170800862B872B7B2B720808007E088A007F08AF
:1017180082000A128A1589230A128A158000840A0F
:1017280004087D0603190034FF0A0319FE0A8D2BED
:10173800F200AA2B2B30BB2B2D30BB2B7830BB2BC8
:101748002F30BB2B3D30BB2B7208BB2B7208233AC2
:101758000319A62B623A03199E2B033A0319A02BEF
:10176800013A0319A22B073A0319A42BA82B080046
:10177800323083120313B5003008B6000030B700CA
:10178800B801B901BF01C0013630AC000030AD006E
:101798003108AE003530AF000A128A15DF230A126D
:1017A8008A158312031338083007B40034088400FC
:1017B800831380010800831203132E08FD00F32B06
:1017C800831203132C08A0002D08A1007D30A2006D
:1017D8002F08A3000A128A118F220A128A157D087F
:1017E80084000A128A150A200A128A15003A031D73
:1017F800FE2BFF2BE42B83120313AC01AD01080071
:10180800F401F501701C092C0A2C102C7208F4073D
:101818000318F50A7308F50701300310F20DF30DEC
:10182800FF3E031D112C01300310F10CF00CFF3E9C
:10183800031D182C70087104031D232C242C062C5E
:101848007508F1007408F0000800F0007008031D26
:101858002E2C322C831203130514352C83120313F8
:1018680005100230700203183A2C3E2C8312031321
:101878008514412C8312031385100330700203185A
:10188800462C4A2C8312031305154D2C831203137F
:1018980005110800CF30F60000300A128A15152706
:1018A8000A128A15C730F60001300A128A15152760
:1018B8000A128A15BF30F60002300A128A15152757
:1018C8000A128A15B730F60003300A128A1515274E
:1018D8000A128A15AF30F60004300A128A15152745
:1018E8000A128A15080079088400831380017A088F
:1018F8008400033080007B08840010300A128A15A7
:10190800A2240A128A15831380007C0884008001AF
:101918007D088400073080007908840000080A12D6
:101928008A1554230A128A157A088400831300083A
:101938000A128A1529240A128A150800F800831247
:1019480003136B08F1006A08F0001F30F200003042
:10195800F3000A128A1504240A128A158312031343
:1019680001087007F6000030031801307107F7000E
:101978007608EA007708EB007808F600F7017608A1
:10198800F0007708F1006B08F3006A08F2000A1209
:101998008A1509250A128A1570080800FC34603473
:1019A800DA34F2346634B634BE34E034FE34F63415
:1019B800073400341A342C343E340A340A340034E0
:1019C80000340E3411340034003400340A34043442
:1019D800113404340A3400340034043415340E3419
:1019E8001F340E3415340434003400340034003409
:1019F800003400341F341F341F3404340E340E34C2
:101A080004340034003400340034700871040319BD
:101A18000E2D0F2D3C2D0130F4001B2D013003102D
:101A2800F00DF10DFF3E031D132D0130F407F11FDA
:101A38001E2D1F2D122D71087302031D252D7008F0
:101A48007202031C282D292D2F2D7008F20271080F
:101A5800031CF303F30201300310F10CF00CFF3EFA
:101A6800031D302D0130F402031D3B2D3C2D1F2D8D
:101A78007308F1007208F0000800FB01FC01662DF4
:101A88007B087607F9007708F8000318F80AFB1FA7
:101A98004E2DF8037808FA007A0883120313FF0022
:101AA800790884000A128A1500200A128A150A1277
:101AB8008A156E270A128A150130FB070318FC0ADB
:101AC8000030FC077B087607F9007708F800031850
:101AD800F80AFB1F702DF8037808FA007A088312B9
:101AE8000313FF00790884000A128A1500200A12DD
:101AF8008A15003A031D812D822D442D0800F4011A
:101B0800F5017008710403198A2D8B2DC02D013041
:101B1800F600972D01300310F00DF10DFF3E031D67
:101B28008F2D0130F607F11F9A2D9B2D8E2D013038
:101B38000310F40DF50DFF3E031D9C2D7108730273
:101B4800031DA82D70087202031CAB2DAC2DB32DFC
:101B58007008F2027108031CF303F30274140130D5
:101B68000310F10CF00CFF3E031DB42D0130F602FA
:101B7800031DBF2DC02D9B2D7508F1007408F000C2
:101B8800080083120313CB0000300A128A15692655
:101B98000A128A1501300A128A1569260A128A154C
:101BA80008300A128A1569260A128A1502300A12A2
:101BB8008A1569260A128A153830F6008030F7002F
:101BC8000A128A1541250A128A1504300A128A1542
:101BD8006E270A128A150C300A128A1569260A120B
:101BE8008A1503300A128A1569260A128A154330A3
:101BF80083120313B0004330B1004B08C100C20187
:101C08004108B2004208B3000A128A15BC230A121E
:101C18008A154330F6000030F7000A128A1541256C
:101C28000A128A150800F2004B2E7830F0000530B1
:101C3800F100682E1430F0000530F100682EB03045
:101C4800F0000430F100682E4C30F0000430F10050
:101C5800682EE830F0000330F100682E8430F00080
:101C68000330F100682E2030F0000330F100682EB8
:101C7800BC30F0000230F100682E5830F00002301D
:101C8800F100682EF430F0000130F100682E72087F
:101C9800003A0319192E013A03191E2E033A0319A3
:101CA800232E013A0319282E073A03192D2E013A3B
:101CB8000319322E033A0319372E013A03193C2E21
:101CC8000F3A0319412E462E0800F500831203131C
:101CD800600884008317611C83130130F3006208D5
:101CE8000739013E792E0310F30DFF3E031D772EB1
:101CF8007308FF3A800575080A128A11D5210A125D
:101D08008A1583120313600884008317611C8313E8
:101D18000130F300620CF400F40C740C0739013E36
:101D2800972E0310F30DFF3E031D952E73088004B4
:101D38000630F4003030F300F30BA02EF40BA02E85
:101D4800000083120313600884008317611C831347
:101D58000130F300620CF400F40C740C0739013EF6
:101D6800B72E0310F30DFF3E031DB52E7308FF3A7F
:101D780080050800F501F31FC22EC32ECA2EF209F2
:101D8800F309F20A0319F30A0130F500F11FCD2E09
:101D9800CE2ED32EF009F109F00A0319F10A7008C2
:101DA80071040319D82ED92E062F0130F400E52E20
:101DB80001300310F00DF10DFF3E031DDD2E013043
:101DC800F407F11FE82EE92EDC2E71087302031DBB
:101DD800EF2E70087202031CF22EF32EF92E7008F3
:101DE800F2027108031CF303F30201300310F10C33
:101DF800F00CFF3E031DFA2E0130F402031D052FDF
:101E0800062FE92E750803190A2F0B2F102FF20938
:101E1800F309F20A0319F30A7308F1007208F000D3
:101E28000800F9007908F70002300310F70DFF3EAB
:101E3800031D192F0310770D403EF80004300310DE
:101E4800F80CFF3E031D232F78080F390A128A1554
:101E580069260A128A157908F70002300310F70D6F
:101E6800FF3E031D322F0310770D403E0F390A1233
:101E78008A1569260A128A15FA01FB017A0876077B
:101E8800F70077088400831300080A128A156E2762
:101E98000A128A150130FA070318FB0A0030FB07FB
:101EA8007B08803AFF0080307F02031D5D2F0830D9
:101EB8007A02031C602F612F422F08300A128A15FC
:101EC80069260A128A1500300A128A1569260A122A
:101ED8008A150800F500831203136008840083172D
:101EE800611C83130130F30062080739013E7E2F1D
:101EF8000310F30DFF3E031D7C2F73088004750843
:101F0800F30004300310F30CFF3E031D862F730803
:101F18000F390A128A11D5210A128A15831203135E
:101F2800600884008317611C83130130F300620C7E
:101F3800F400F40C740C0739013EA42F0310F30DC0
:101F4800FF3E031DA22F730880040D30F300F30B2E
:101F5800AB2F83120313600884008317611C83135B
:101F68000130F300620CF400F40C740C0739013EE4
:101F7800BF2F0310F30DFF3E031DBD2F7308FF3A5B
:101F8800800575080F390A128A11D5210A128A1597
:101F980083120313600884008317611C83130130C4
:101FA800F300620CF400F40C740C0739013EDE2FC8
:101FB8000310F30DFF3E031DDC2F730880040D3062
:101FC800F300F30BE52F83120313600884008317D3
:101FD800611C83130130F300620CF400F40C740CE0
:101FE8000739013EF92F0310F30DFF3E031DF72FAC
:081FF8007308FF3A80050800A0
:04400E00F12FFF3F50
:00000001FF
