:060000000A128A110C280F
:10000800FE00030EF0000A08F1000A128A11182AED
:100018000A128A110F2883134230FD000230FE00B5
:100028002730FF00383084000A128A1109220A1288
:100038008A110A128A1131220A128A11FA00C2019F
:10004800C30183010A128A11BB29E830F200033088
:10005800F300831203132708F5002608F4000A1298
:100068008A11FF200A128A11730883120313AD0044
:100078007208AC000A30A0000030A1006430F20021
:100088000030F3002708F5002608F4000A128A1148
:10009800FF200A128A11730883120313A30072083F
:1000A800A2000A128A1162210A128A11831203130A
:1000B8002108AF002008AE000A30A0000030A100DF
:1000C8000A30F2000030F3002708F5002608F40093
:1000D8000A128A11FF200A128A1173088312031365
:1000E800A3007208A2000A128A1162210A128A1158
:1000F800831203132108B1002008B0000A30A000C1
:100108000030A1002708A3002608A2000A128A11BD
:1001180062210A128A11831203132108B3002008EE
:10012800B200B401B501F028F73083120313870039
:100138002C08383E8400831300088800033083129B
:100148000313AB009730AA00AA0BA828AB0BA8286A
:10015800FB308312031387002E08383E8400831374
:1001680000088800033083120313AB009730AA00FD
:10017800AA0BBC28AB0BBC28FD30831203138700E5
:100188003008383E84008313000888000330831247
:100198000313AB009730AA00AA0BD028AB0BD028CA
:1001A800FE308312031387003208383E840083131D
:1001B80000088800033083120313AB009730AA00AD
:1001C800AA0BE428AB0BE428013083120313B4070D
:1001D8000318B50A0030B5073508803AAA0029087F
:1001E800803A2A02031DFA2828083402031CFD2835
:1001F800FE2898280800F701F31F032904290B2972
:10020800F209F309F20A0319F30A0130F700F51F9E
:100218000E290F291629F409F509F40A0319F50A14
:100228000130F706F801F9017208730403191D2952
:100238001E2953290130F6002A2901300310F20D36
:10024800F30DFF3E031D22290130F607F31F2D2968
:100258002E29212901300310F80DF90DFF3E031D49
:100268002F2973087502031D3B2972087402031CA9
:100278003E293F2946297208F4027308031CF50336
:10028800F502781401300310F30CF20CFF3E031D45
:1002980047290130F602031D522953292E297708D0
:1002A8000319572958295D29F809F909F80A031982
:1002B800F90A7908F3007808F2000800831203139A
:1002C800A501A31F682969297029A209A309A20AFF
:1002D8000319A30A0130A500A11F732974297929DC
:1002E800A009A109A00A0319A10A200821040319D9
:1002F8007E297F29AC290130A4008B290130031005
:10030800A00DA10DFF3E031D83290130A407A11FE5
:100318008E298F29822921082302031D9529200867
:100328002202031C982999299F292008A202210842
:10033800031CA303A30201300310A10CA00CFF3E71
:10034800031DA0290130A402031DAB29AC298F2964
:1003580025080319B029B129B629A209A309A20AB7
:100368000319A30A2308A1002208A0000800831685
:100378000317880189018316031301083F39810097
:1003880087018801FF3086008B170B160113831233
:100398004308A7004208A6000A30A8000030A900B8
:1003A8000A128A1129200A128A117A088312031361
:1003B800B600B701B61BB7033608C2070318C30A4D
:1003C8003708C3074308803AFF00A7307F02031DA0
:1003D800EF2910304202031CF229F329F72983126E
:1003E8000313C201C30183120313C31FFC29FD2990
:1003F800CB290F30C2002730C300CB290A128A113B
:100408000C287E088A007F0882000A128A110522B9
:100418000A128A118000840A04087D060319003430
:10042800FF0A0319FE0A092A8B1C1B2A1C2A202AE8
:100438007A03FF3AFA008B1071088A00700E830065
:10044800FE0E7E0E0900FC346034DA34F234663471
:0C045800B634BE34E034FE34F634013417
:04400E00F22FFF3F4F
:00000001FF
