:060000000A128A110C280F
:10000800FE00030EF0000A08F1000A128A11E52F1B
:100018000A128A110F28831603130A128A157B26DF
:100028000A128A11DA000A128A157C260A128A1123
:10003800DB000A128A157D260A128A11DC000A12D0
:100048008A157E260A128A11DD000A128A157F2671
:100058000A128A11DE008313A0308400C1300A120C
:100068008A1580260A128A11643084006D300A12BB
:100078008A1580260A128A11FB0183010A128A1145
:1000880045280A128A1588260A128A11FF30831613
:100098000313860001087F3981008B170B160113A3
:1000A800CB3084005A0883138000840A5B088000E0
:1000B800840A5C088000840A5D088000840A5E085F
:1000C8008000203084004B088000840A4C0880009F
:1000D800840A4D088000840A4E088000840A4F086C
:1000E80080000A128A11A5230A128A1100300A1206
:1000F8008A11F1260A128A1101300A128A11F12690
:100108000A128A110A128A1596260A128A11730887
:1001180083160313D9007208D8002008031D9528F8
:100128009628632908300A128A11F1260A128A11C0
:1001380000300A128A11F1260A128A110E30F800CC
:100148008030F9000A128A15BA270A128A11083073
:100158000A128A11F1260A128A1109300A128A1122
:10016800F1260A128A11003083120313A700003007
:10017800A6000330A500FF30A40083160313580817
:10018800F2005908F300F401F5010030F9000030DD
:10019800F800C330F7005030F6000A128A11992788
:1001A8000A128A11750883120313AB007408AA0097
:1001B8007308A9007208A8000A128A11F1240A1209
:1001C8008A1183120313250883160313D700831299
:1001D8000313240883160313D60010308312031365
:1001E800A0002730A10083160313570883120313B6
:1001F800A30083160313560883120313A2000A12DE
:100208008A1576270A128A11831203132108831686
:100218000313D10083120313200883160313D0009D
:100228001030F2002730F3005708F5005608F400A4
:100238000A128A153E270A128A11730883160313B5
:10024800D3007208D200C13083120313CE001830D5
:10025800CF0083160313510883120313D1008316AA
:100268000313500883120313D00083160313530893
:1002780083120313D3008316031352088312031344
:10028800D2000A128A15CB260A128A11C130F80048
:100298000030F9000A128A15BA270A128A110330A7
:1002A80083120313E3000830E2007630E100E10B2B
:1002B8005B29E20B5B29E30B5B290000062A20037C
:1002C800031D67296829CD2908300A128A11F126E9
:1002D8000A128A1100300A128A11F1260A128A11AA
:1002E8000130F8008030F9000A128A15BA270A127C
:1002F8008A1108300A128A11F1260A128A110C3062
:100308000A128A11F1260A128A116630831203131F
:10031800A0000030A100831603135908F300580801
:10032800F2000A30F4000030F5000A128A15EE26B1
:100338000A128A11730883120313A3007208A20019
:100348000A128A1576270A128A11831203132108C2
:1003580083160313D500831203132008831603138F
:10036800D400C13083120313CE002630CF00831689
:100378000313550883120313D1008316031354087B
:1003880083120313D0000A128A15CB260A128A1187
:100398004A2908300A128A11F1260A128A110030F5
:1003A8000A128A11F1260A128A112030F8008030C8
:1003B800F9000A128A15BA270A128A1108300A1295
:1003C8008A11F1260A128A1105300A128A11F126B9
:1003D8000A128A11C13083120313CE002C30CF00C9
:1003E80083160313590883120313D10083160313CA
:1003F800580883120313D0000A128A15CB260A1252
:100408008A114A29023083120313E3000430E20000
:10041800B930E100E10B0E2AE20B0E2AE30B0E2A9B
:10042800152A7A280A128A110C28831203133F0806
:1004380084008313000884000A128A150A200A120D
:100448008A11253A031D292A2A2AD12A3F0884001D
:1004580001308007E901EA010030FB00FF30EB00C2
:10046800FF30EC00C7014E2AFB143F08840001301E
:1004780080074E2A0130C7004E2A3F088400000832
:1004880084000A128A150A200A128A11303A0319BE
:10049800382A3E2A47080319522A532A412A3F0874
:1004A800F8004008F9000A128A119A260A128A11DD
:1004B800790883120313EA007808E900EA1F652A1D
:1004C800662A6C2A7B14E909EA09E90A0319EA0A87
:1004D8003F08840083130008C800480884000A12F3
:1004E8008A150A200A128A11753A031D7C2A7D2A68
:1004F800A92A400884000008C1000230800741088A
:1005080084000008C300840A0008C4003F0884006F
:100518004808013E80009E2A3D08B4003E08B50008
:100528004408B7004308B6000A128A111C260A12AA
:100538008A11EA2A480884000A128A150A200A122F
:100548008A11753A0319902AA92A3F0884000008DD
:1005580084000A128A150A200A128A11253A031DF4
:10056800B62AB72AC92A3F088400013080072530F7
:10057800F2000030F3003D08F4003E08F5000A12CE
:100588008A1151240A128A11EA2A831203133F0896
:100598008400013083138007EA2A3F08840000089A
:1005A80084000A128A150A200A128A11C100C2019F
:1005B8004108F2004208F3003D08F4003E08F50047
:1005C8000A128A1151240A128A11C92A0800F40051
:1005D800741CEF2AF02A052B831203136408840085
:1005E8008317651C83130130F20067080739013E41
:1005F800FF2A0310F20DFF3E031DFD2A7208800436
:100608001A2B83120313640884008317651C831351
:100618000130F20067080739013E142B0310F20D70
:10062800FF3E031D122B7208FF3A8005F41C1D2B98
:100638001E2B342B640884008317651C8313013038
:10064800F200670CF300F30C730C0739013E2E2BF4
:100658000310F20DFF3E031D2C2B720880044A2B59
:10066800640884008317651C83130130F200670C4B
:10067800F300F30C730C0739013E442B0310F20D01
:10068800FF3E031D422B7208FF3A8005741D4D2B57
:100698004E2B612B640884008317651C831301307B
:1006A800F20068080739013E5B2B0310F20DFF3E8C
:1006B800031D592B72088004742B64088400831767
:1006C800651C83130130F20068080739013E6E2B60
:1006D8000310F20DFF3E031D6C2B7208FF3A8005D4
:1006E800F41D772B782B8E2B640884008317651CE8
:1006F80083130130F200680CF300F30C730C073914
:10070800013E882B0310F20DFF3E031D862B720855
:100718008004A42B640884008317651C83130130AC
:10072800F200680CF300F30C730C0739013E9E2BA2
:100738000310F20DFF3E031D9C2B7208FF3A800543
:100748000800643084008312031320088313800098
:10075800840A21088000840A22088000840A230869
:100768008000840A2408800000306506031DBE2B23
:1007780005306406031DC12BC22BC62B8316031339
:100788008501E12B00306506031DCC2B063064067D
:10079800031DCF2BD02BD42B831603138601E12BFB
:1007A80000306506031DDA2B07306406031DDD2BB8
:1007B800DE2B502C8316031387011A30F900F8300A
:1007C800F800F80BE52BF90BE52B000003300A12B3
:1007D8008A11F1260A128A110730F9007D30F800D3
:1007E800F80BF42BF90BF42B03300A128A11F126BB
:1007F8000A128A111530F900C630F800F80B022CDD
:10080800F90B022C000003300A128A11F1260A1291
:100818008A1102300A128A11F1260A128A1102304C
:100828000A128A11F1260A128A1108300A128A114C
:10083800F1260A128A1100300A128A11F1260A12C8
:100848008A1106300A128A11F1260A128A11083012
:10085800FA007A157A08F80004300310F80CFF3E05
:10086800031D312C78080F390A128A11F1260A1251
:100878008A117A080F390A128A11F1260A128A1186
:1008880000300A128A11F1260A128A1101300A125E
:100898008A11F1260A128A110800740875040319CE
:1008A800562C572C5D2C74087504031D5C2C5D2C8C
:1008B800642C72080A128A11FC270A128A11F02C79
:1008C8007408093E83120313A00075080318013E3B
:1008D800003EA100200884008317211C8313000810
:1008E800A200840A0008A3002208230403197D2C0F
:1008F8007E2CB02C7408093EA00075080318013E30
:10090800003EA100200884008317211C83130008DF
:10091800A200840A0008A3007408023EA400750817
:100928000318013E003EA500240884008317251CF7
:1009380083130008A600840A0008A7002708803A45
:10094800A8002308803A2802031DAC2C220826029E
:100958000318AF2CB02CF02C740884008317751C76
:100968008313000883120313A000840A0008A1005F
:100978007408023EA20075080318013E003EA30059
:10098800220884008317231C831300082007A5006E
:100998002108A4000318A40A801FD32CA4038312DF
:1009A80003132408A600250884008317261C831334
:1009B800720880007408023EA00075080318013E02
:1009C800003EA100200884008317211C83130130F6
:1009D8008007840A0318800A080083120313AE01F3
:1009E800A71FF72CF82C052DA409A509A609A70906
:1009F800A40A0319A50A0319A60A0319A70A0130AC
:100A0800AE00AB1F082D092D162DA809A909AA09A2
:100A1800AB09A80A0319A90A0319AA0A0319AB0AF8
:100A28000130AE060030B2000030B1000030B00036
:100A38000030AF0027082604250424040319252DB7
:100A4800262D712D0130AD00342D0130AC0003107E
:100A5800A40DA50DA60DA70DAC0B2B2D0130AD07D0
:100A6800A71F372D382D292D0130AC000310AF0DED
:100A7800B00DB10DB20DAC0B3A2D27082B02031D9A
:100A88004F2D26082A02031D4F2D25082902031D74
:100A98004F2D24082802031C522D532D622D2408A3
:100AA800A8022508031C250FA9022608031C260FE7
:100AB800AA022708031C270FAB022F1401300310CA
:100AC800A70CA60CA50CA40CFF3E031D632D01303A
:100AD800AD02031D702D712D382D2E080319752DAB
:100AE800762D812DAF09B009B109B209AF0A0319F2
:100AF800B00A0319B10A0319B20A3208A70031086B
:100B0800A6003008A5002F08A4000800F7008312EB
:100B18000313640884008317651C83130130F500F0
:100B280066080739013E9A2D0310F50DFF3E031D97
:100B3800982D750880047708F50004300310F50C2B
:100B4800FF3E031DA22D75080F390A128A11EB22E8
:100B58000A128A1183120313640884008317651C20
:100B680083130130F500660CF600F60C760C073995
:100B7800013EC02D0310F50DFF3E031DBE2D750867
:100B880080040D30F500F50BC72D8312031364089C
:100B980084008317651C83130130F500660CF6008A
:100BA800F60C760C0739013EDB2D0310F50DFF3EE0
:100BB800031DD92D7508FF3A800577080F390A12E9
:100BC8008A11EB220A128A11831203136408840023
:100BD8008317651C83130130F500660CF600F60CCC
:100BE800760C0739013EFA2D0310F50DFF3E031D63
:100BF800F82D750880040D30F500F50B012E8312D1
:100C08000313640884008317651C83130130F500FF
:100C1800660CF600F60C760C0739013E152E03100B
:100C2800F50DFF3E031D132E7508FF3A80050800D9
:100C3800013083120313B8006A08BA006908B900C2
:100C48001F30BB000030BC0083160313C001642EA4
:100C5800FF3083120313BB070318BC0AFF30BC071D
:100C68003B08A13E84000A30F2000030F300370848
:100C7800F5003608F4000A128A153E270A128A116E
:100C88007208303E8313800083120313B801FF30CB
:100C9800B9070318BA0AFF30BA070A30A0000030B3
:100CA800A1003708A3003608A2000A128A15762781
:100CB8000A128A11831203132108B7002008B6000C
:100CC80083123B083C0403196A2E6B2E872E3608C4
:100CD8003704031D702E712E2C2E3808031D752E17
:100CE800762E2C2E3A08803AFF0080307F02031DB2
:100CF8007F2E01303902031C822E832E872EFB188B
:100D0800862E872E2C2E831203133408AC00350848
:100D1800AD003B08A13EAE003A08B0003908AF006C
:100D28000A128A1146270A128A110800831203132D
:100D3800A101A201780884008313000884000A1224
:100D48008A150A200A128A112A3A031DAC2EAD2EE2
:100D5800DB2E7808840001308007790884000008B9
:100D6800FA00023080077A0884000008A100840A8B
:100D78000008A200EC2E2208F3002108F2000A3035
:100D8800F4000030F5000A128A15EE260A128A11BC
:100D98008312031320087207A100003003180130E2
:100DA8007307A2007808840001308313800778084D
:100DB8008400000884000A128A150A200A128A117F
:100DC800D03EA0000A302002031CEB2EEC2EBF2ED2
:100DD8002208F9002108F8000800F700831203131D
:100DE800640884008317651C83130130F5006608C6
:100DF8000739013E012F0310F50DFF3E031DFF2E9D
:100E08007508FF3A800577080A128A11EB220A1240
:100E18008A1183120313640884008317651C8313E3
:100E28000130F500660CF600F60C760C0739013E29
:100E38001F2F0310F50DFF3E031D1D2F750880049D
:100E48000630F6003030F500F50B282FF60B282F6A
:100E5800000083120313640884008317651C83133E
:100E68000130F500660CF600F60C760C0739013EE9
:100E78003F2F0310F50DFF3E031D3D2F7508FF3A68
:100E8800800508007B1C492F4A2F572F8312031314
:100E98002E08F6002C08F7002D08F8000A128A150B
:100EA80013270A128A1183120313B01F5C2F5D2FB8
:100EB8005F2FAF01B001B201B301792F2030F200EA
:100EC8000030F300831203132C08F4002D08F500FA
:100ED8000A128A1151240A128A110130831203134B
:100EE800B2070318B30A0030B3073308803AB100D9
:100EF8003008803A3102031D832F2F083202031C69
:100F0800862F872F622F7B188A2F8B2F982F83127B
:100F180003132E08F6002C08F7002D08F8000A1213
:100F28008A1513270A128A11080000308312031346
:100F3800A3000030A2000030A1000030A000721C05
:100F4800A62FA72FC02F760883120313A0077708B0
:100F580003110318013E0319B22FA10778080311E2
:100F68000318013E0319B92FA207790803110318C2
:100F7800013E0319C02FA3070130FA000310F60D34
:100F8800F70DF80DF90DFA0BC22F01300310F50C0F
:100F9800F40CF30CF20CFF3E031DCA2F7508740401
:100FA80073047204031DD92FDA2FA32F831203139E
:100FB8002308F5002208F4002108F3002008F200B5
:100FC80008008B1CE82FE92FF52F01308316031337
:100FD800A00703302002031CF22FF32FF42FA001E7
:100FE8008B1071088A00700E8300FE0E7E0E0900B9
:020FF8000800EF
:10100000FF1B0A2883137F1883170008840A03191B
:10101000FF0A080008308A000408840A82070034A6
:1010200050346F347234633465346E3474346134E4
:101030006A3465343A342034003456346F346C34B6
:10104000743461346A3465343A34203400342534DD
:1010500075342E342534303434347534003441340E
:10106000443443343A342034003425347534203445
:0C10700025342534003425347534003458
:101CF600073400341A342C343E3464008001840ADC
:101D06000406031900340406812E013083160317D6
:101D1600880089018130831203139F008030831667
:101D260003139F0008000330F400F40B982E83126F
:101D360003139F149F18A02EA12E9D2E1E08F3009C
:101D4600831603131E08F2000800831203134B08C0
:101D5600CD00BA2E4908BD004A08BE004D30BF006E
:101D66004C08C0000A128A1119220A128A15831217
:101D760003134D0884000A128A150A200A128A15CE
:101D8600003A031DC72EC82EAD2EC901CA01080090
:101D9600503083120313D5004E08D6000030D7000A
:101DA600D801D901DF01E0015630C9000030CA0070
:101DB6004F08CB005530CC000A128A15A8260A1205
:101DC6008A158312031358084E07D400540884005A
:101DD600831380010800F601F701721CF32EF42E1E
:101DE600FA2E7408F6070318F70A7508F707013084
:101DF6000310F40DF50DFF3E031DFB2E01300310FD
:101E0600F30CF20CFF3E031D022F72087304031D30
:101E16000D2F0E2FF02E7708F3007608F20008003B
:101E260083120313AA01AB01302F2908F900FA0126
:101E36007908F2007A08F3007708F4007808F500CC
:101E46000A128A1151240A128A15013083120313C9
:101E5600AA070318AB0A0030AB072A087607F90071
:101E66007908840083130008A9002908031D3C2F64
:101E76003D2F182F0800720873040319432F442FAF
:101E8600712F0130F600502F01300310F20DF30DC3
:101E9600FF3E031D482F0130F607F31F532F542F23
:101EA600472F73087502031D5A2F72087402031C0C
:101EB6005D2F5E2F642F7208F4027308031CF5036E
:101EC600F50201300310F30CF20CFF3E031D652FE3
:101ED6000130F602031D702F712F542F7508F30081
:101EE6007408F2000800F901FA01831203132008AE
:101EF600210403197F2F802FB52F0130F8008C2F76
:101F060001300310A00DA10DFF3E031D842F0130EB
:101F1600F807A11F8F2F902F832F01300310F90D83
:101F2600FA0DFF3E031D912F21082302031D9D2F4D
:101F360020082202031CA02FA12FA82F2008A202EE
:101F46002108031CA303A302791401300310A10C7A
:101F5600A00CFF3E031DA92F0130F802031DB42F6C
:101F6600B52F902F7A08A1007908A00008008312E7
:101F76000313A301A401E32F23087807A10079081E
:101F8600A0000318A00AA31FC92FA00383120313DE
:101F96002008A2002208FF00210884000A128A15E0
:101FA60000200A128A150A128A118A250A128A152F
:101FB600013083120313A3070318A40A0030A407F1
:101FC60023087807A1007908A0000318A00AA31F18
:101FD600ED2FA003831203132008A2002208FF009E
:101FE600210884000A128A1500200A128A15003A6E
:0A1FF600031DFE2FFF2FBF2F080070
:04400E00F22FFF3F4F
:00000001FF
