:060000000A128A110C280F
:10000800FE00030EF0000A08F1000A128A11E32F1D
:100018000A128A110F28831603130A128A11FA2763
:100028000A128A11DD000A128A11FB270A128A11A4
:10003800DE000A128A11FC270A128A11DF000A124E
:100048008A11FD270A128A11E0000A128A11FE2776
:100058000A128A11E1008313A0308400C2300A1208
:100068008A151B260A128A11643084006D300A1220
:100078008A151B260A128A11FB0183010A128A11AA
:1000880045280A128A1523260A128A11FF30831678
:100098000313860001087F3981008B170B160113A3
:1000A800CC3084005D0883138000840A5E088000D9
:1000B800840A5F088000840A60088000840A610856
:1000C8008000203084004C088000840A4D0880009D
:1000D800840A4E088000840A4F088000840A500869
:1000E80080000A128A119E230A128A11013083168F
:1000F8000313D70083120313060C01398316031365
:10010800DA005A08031D89288A28A2285703031DE4
:100118008E288F28A22820080319932895280130B3
:1001280096280030A0004E3083120313E200EA3014
:10013800E100E10B9D28E20B9D28000083160313C4
:100148005A08D70000300A128A11EA260A128A11C0
:1001580001300A128A11EA260A128A118316031339
:1001680020080A128A159C260A128A117308831617
:100178000313DC007208DB0008300A128A11EA2631
:100188000A128A1100300A128A11EA260A128A1102
:10019800831603132008031DD228D328DD28013035
:1001A800F8008030F9000A128A156E270A128A119F
:1001B800E6281130F8008030F9000A128A156E27F7
:1001C8000A128A110C300A128A11EA260A128A11B6
:1001D80000300A128A11EA260A128A1183160313BA
:1001E8002108031DF828F9289629003083120313E3
:1001F800A7000030A6000330A500FF30A400831636
:1002080003135B08F2005C08F300F401F501003009
:10021800F9000030F800C330F7005030F6000A1239
:100228008A15B4270A128A11750883120313AB00C2
:100238007408AA007308A9007208A8000A128A1193
:10024800EA240A128A11831203132508831603135A
:10025800D90083120313240883160313D80010301F
:1002680083120313A0002730A10083160313590833
:1002780083120313A300831603135808831203136E
:10028800A2000A128A152A270A128A118312031356
:10029800210883160313D200831203132008831640
:1002A8000313D1001030F2002730F3005908F5008D
:1002B8005808F4000A128A15F2260A128A117308DD
:1002C80083160313D4007208D300C23083120313B9
:1002D800CE002130CF008316031352088312031374
:1002E800D10083160313510883120313D000831619
:1002F8000313540883120313D300831603135308FC
:1003080083120313D2000A128A1554260A128A117C
:10031800C230F8000030F9000A128A156E270A1256
:100328008A11FF292103031D9A299B29DF29FF3000
:1003380083120313A0000330A100831603135C0883
:10034800F3005B08F2006430F4000030F5000A1294
:100358008A1577260A128A11730883120313A300D9
:100368007208A2000A128A152A270A128A11831211
:100378000313210883160313D600831203132008DE
:1003880083160313D500C23083120313CE002E3018
:10039800CF0083160313560883120313D100831664
:1003A8000313550883120313D0000A128A15542622
:1003B8000A128A118C29C23083120313CE003A30F4
:1003C800CF00831603135C0883120313D10083162E
:1003D80003135B0883120313D0000A128A155426EC
:1003E8000A128A11C230F8000030F9000A128A1580
:1003F8006E270A128A11033083120313E3000830B0
:10040800E2007630E100E10B072AE20B072AE30B52
:10041800072A00007E280A128A110C288312031367
:100428003F0884008313000884000A128A119C275D
:100438000A128A11253A031D222A232ACA2A3F08AA
:10044800840001308007E901EA010030FB00FF3039
:10045800EB00FF30EC00C701472AFB143F0884007B
:1004680001308007472A0130C700472A3F08840027
:10047800000884000A128A119C270A128A11303A4D
:100488000319312A372A470803194B2A4C2A3A2AD2
:100498003F08F8004008F9000A128A1193260A1248
:1004A8008A11790883120313EA007808E900EA1F21
:1004B8005E2A5F2A652A7B14E909EA09E90A031911
:1004C800EA0A3F08840083130008C800480884002B
:1004D8000A128A119C270A128A11753A031D752A75
:1004E800762AA22A400884000008C100023080074A
:1004F800410884000008C300840A0008C4003F08BB
:1005080084004808013E8000972A3D08B4003E0850
:10051800B5004408B7004308B6000A128A11152628
:100528000A128A11E32A480884000A128A119C27B1
:100538000A128A11753A0319892AA22A3F088400E7
:10054800000884000A128A119C270A128A11253A87
:10055800031DAF2AB02AC22A3F0884000130800751
:100568002530F2000030F3003D08F4003E08F500A5
:100578000A128A114A240A128A11E32A83120313DF
:100588003F088400013083138007E32A3F08840072
:10059800000884000A128A119C270A128A11C100D5
:1005A800C2014108F2004208F3003D08F4003E0889
:1005B800F5000A128A114A240A128A11C22A08006E
:1005C800F400741CE82AE92AFE2A8312031364083B
:1005D80084008317651C83130130F200670807390C
:1005E800013EF82A0310F20DFF3E031DF62A720899
:1005F8008004132B83120313640884008317651C7B
:1006080083130130F20067080739013E0D2B0310F0
:10061800F20DFF3E031D0B2B7208FF3A8005F41CF8
:10062800162B172B2D2B640884008317651C831346
:100638000130F200670CF300F30C730C0739013E2C
:10064800272B0310F20DFF3E031D252B7208800493
:10065800432B640884008317651C83130130F20060
:10066800670CF300F30C730C0739013E3D2B0310A4
:10067800F20DFF3E031D3B2B7208FF3A8005741DE7
:10068800462B472B5A2B640884008317651C831359
:100698000130F20068080739013E542B0310F20DAF
:1006A800FF3E031D522B720880046D2B64088400E2
:1006B8008317651C83130130F20068080739013E6F
:1006C800672B0310F20DFF3E031D652B7208FF3ADE
:1006D8008005F41D702B712B872B64088400831709
:1006E800651C83130130F200680CF300F30C730CE3
:1006F8000739013E812B0310F20DFF3E031D7F2BAE
:10070800720880049D2B640884008317651C83137A
:100718000130F200680CF300F30C730C0739013E4A
:10072800972B0310F20DFF3E031D952B7208FF3A1D
:1007380080050800643084008312031320088313A3
:100748008000840A21088000840A22088000840A24
:1007580023088000840A2408800000306506031DF1
:10076800B72B05306406031DBA2BBB2BBF2B831692
:1007780003138501DA2B00306506031DC52B0630EF
:100788006406031DC82BC92BCD2B831603138601C2
:10079800DA2B00306506031DD32B07306406031DD2
:1007A800D62BD72B492C8316031387011A30F9004F
:1007B800F830F800F80BDE2BF90BDE2B00000330C5
:1007C8000A128A11EA260A128A110730F9007D30C6
:1007D800F800F80BED2BF90BED2B03300A128A11F8
:1007E800EA260A128A111530F900C630F800F80B0B
:1007F800FB2BF90BFB2B000003300A128A11EA26A7
:100808000A128A1102300A128A11EA260A128A1179
:1008180002300A128A11EA260A128A1108300A12CC
:100828008A11EA260A128A1100300A128A11EA2667
:100838000A128A1106300A128A11EA260A128A1145
:100848000830FA007A157A08F80004300310F80C1A
:10085800FF3E031D2A2C78080F390A128A11EA264E
:100868000A128A117A080F390A128A11EA260A121C
:100878008A1100300A128A11EA260A128A110130F6
:100888000A128A11EA260A128A11080074087504E5
:1008980003194F2C502C562C74087504031D552C25
:1008A800562C5D2C72080A128A11FF270A128A1127
:1008B800E92C7408093E83120313A0007508031875
:1008C800013E003EA100200884008317211C8313E9
:1008D8000008A200840A0008A300220823040319C0
:1008E800762C772CA92C7408093EA00075080318EB
:1008F800013E003EA100200884008317211C8313B9
:100908000008A200840A0008A3007408023EA4009C
:1009180075080318013E003EA500240884008317CB
:10092800251C83130008A600840A0008A7002708CE
:10093800803AA8002308803A2802031DA52C220823
:1009480026020318A82CA92CE92C74088400831704
:10095800751C8313000883120313A000840A00087F
:10096800A1007408023EA20075080318013E003E6B
:10097800A300220884008317231C83130008200780
:10098800A5002108A4000318A40A801FCC2CA403E6
:10099800831203132408A600250884008317261C45
:1009A8008313720880007408023EA00075080318BB
:1009B800013E003EA100200884008317211C8313F8
:1009C80001308007840A0318800A08008312031381
:1009D800AE01A71FF02CF12CFE2CA409A509A6092D
:1009E800A709A40A0319A50A0319A60A0319A70A3D
:1009F8000130AE00AB1F012D022D0F2DA809A9094A
:100A0800AA09AB09A80A0319A90A0319AA0A03190A
:100A1800AB0A0130AE060030B2000030B100003041
:100A2800B0000030AF002708260425042404031969
:100A38001E2D1F2D6A2D0130AD002D2D0130AC006B
:100A48000310A40DA50DA60DA70DAC0B242D013088
:100A5800AD07A71F302D312D222D0130AC0003101A
:100A6800AF0DB00DB10DB20DAC0B332D27082B0215
:100A7800031D482D26082A02031D482D2508290292
:100A8800031D482D24082802031C4B2D4C2D5B2DDB
:100A98002408A8022508031C250FA9022608031C00
:100AA800260FAA022708031C270FAB022F140130B8
:100AB8000310A70CA60CA50CA40CFF3E031D5C2D6F
:100AC8000130AD02031D692D6A2D312D2E08031941
:100AD8006E2D6F2D7A2DAF09B009B109B209AF0A91
:100AE8000319B00A0319B10A0319B20A3208A70098
:100AF8003108A6003008A5002F08A4000800F70058
:100B080083120313640884008317651C8313013060
:100B1800F50066080739013E932D0310F50DFF3ED9
:100B2800031D912D750880047708F5000430031023
:100B3800F50CFF3E031D9B2D75080F390A128A110B
:100B4800E4220A128A1183120313640884008317AB
:100B5800651C83130130F500660CF600F60C760C64
:100B68000739013EB92D0310F50DFF3E031DB72DC2
:100B7800750880040D30F500F50BC02D83120313A2
:100B8800640884008317651C83130130F500660C24
:100B9800F600F60C760C0739013ED42D0310F50D3E
:100BA800FF3E031DD22D7508FF3A800577080F39DF
:100BB8000A128A11E4220A128A11831203136408A2
:100BC80084008317651C83130130F500660CF6005A
:100BD800F60C760C0739013EF32D0310F50DFF3E98
:100BE800031DF12D750880040D30F500F50BFA2D65
:100BF80083120313640884008317651C8313013070
:100C0800F500660CF600F60C760C0739013E0E2E40
:100C18000310F50DFF3E031D0C2E7508FF3A8005E5
:100C28000800013083120313B8006A08BA00690883
:100C3800B9001F30BB000030BC0083160313C1018C
:100C48005D2EFF3083120313BB070318BC0AFF3065
:100C5800BC073B08A23E84000A30F2000030F300D3
:100C68003708F5003608F4000A128A15F2260A1227
:100C78008A117208303E8313800083120313B8016F
:100C8800FF30B9070318BA0AFF30BA070A30A000C4
:100C98000030A1003708A3003608A2000A128A15FE
:100CA8002A270A128A11831203132108B700200881
:100CB800B60083123B083C040319632E642E802E71
:100CC80036083704031D692E6A2E252E3808031DA1
:100CD8006E2E6F2E252E3A08803AFF0080307F0254
:100CE800031D782E01303902031C7B2E7C2E802EAA
:100CF800FB187F2E802E252E831203133408AC0098
:100D08003508AD003B08A23EAE003A08B0003908ED
:100D1800AF000A128A113F270A128A1108008312AB
:100D28000313A101A201780884008313000884003A
:100D38000A128A119C270A128A112A3A031DA52E23
:100D4800A62ED42E78088400013080077908840004
:100D58000008FA00023080077A0884000008A10021
:100D6800840A0008A200E52E2208F3002108F200F8
:100D78000A30F4000030F5000A128A1577260A12A4
:100D88008A118312031320087207A1000030031888
:100D980001307307A20078088400013083138007AC
:100DA80078088400000884000A128A119C270A1215
:100DB8008A11D03EA0000A302002031CE42EE52E42
:100DC800B82E2208F9002108F8000800F70083125D
:100DD8000313640884008317651C83130130F5002E
:100DE80066080739013EFA2E0310F50DFF3E031D74
:100DF800F82E7508FF3A800577080A128A11E4224E
:100E08000A128A1183120313640884008317651C6D
:100E180083130130F500660CF600F60C760C0739E2
:100E2800013E182F0310F50DFF3E031D162F750800
:100E380080040630F6003030F500F50B212FF60B54
:100E4800212F000083120313640884008317651C94
:100E580083130130F500660CF600F60C760C0739A2
:100E6800013E382F0310F50DFF3E031D362F750880
:100E7800FF3A800508007B1C422F432F502F831216
:100E880003132E08F6002C08F7002D08F8000A12A4
:100E98008A15C7260A128A1183120313B01F552F09
:100EA800562F582FAF01B001B201B301722F203075
:100EB800F2000030F300831203132C08F4002D080D
:100EC800F5000A128A114A240A128A110130831283
:100ED8000313B2070318B30A0030B3073308803A84
:100EE800B1003008803A3102031D7C2F2F083202EE
:100EF800031C7F2F802F5B2F7B18832F842F912F2C
:100F0800831203132E08F6002C08F7002D08F800AA
:100F18000A128A15C7260A128A110800FF1B9C2F7D
:100F280083137F1883170008840A0319FF0A08002F
:100F380007308A000408840A8207003450346F346A
:100F4800743465346E34633469346F346D346534A5
:100F5800743472346F3420343134003450346F3484
:100F6800743465346E34633469346F346D34653485
:100F7800743472346F3420343234003456343A3492
:100F88002034253475342E342534303434347534D3
:100F980020345634003450346F34723463343A3465
:100FA8002034253475342034253425340034413434
:100FB800443443343A3420342534753400348B1C9B
:100FC800E62FE72FF32F013083160313A107033011
:100FD8002102031CF02FF12FF22FA1018B107108B1
:100FE8008A00700E8300FE0E7E0E0900073400345E
:080FF8001A342C343E340800C9
:101C360064008001840A04060319003404061C2E7D
:101C46000330831603178800890180308316031337
:101C56009F000130831203139F00080083120313B1
:101C66004B08CD00432E4908BD004A08BE004D3042
:101C7600BF004C08C0000A128A1112220A128A15E5
:101C8600831203134D0884000A128A119C270A1234
:101C96008A15003A031D502E512E362EC901CA014F
:101CA6000800503083120313D5004E08D6000030CA
:101CB600D700D801D901DF01E0015630C900003054
:101CC600CA004F08CB005530CC000A128A153126BF
:101CD6000A128A158312031358084E07D4005408B3
:101CE6008400831380010800F601F701721C7C2E24
:101CF6007D2E832E7408F6070318F70A7508F70772
:101D060001300310F40DF50DFF3E031D842E013046
:101D16000310F30CF20CFF3E031D8B2E72087304A6
:101D2600031D962E972E792E7708F3007608F2007B
:101D36000800F6000330F400F40B9F2E8330831264
:101D460003139F057608F40001300310F40DFF3EDF
:101D5600031DA82E0310740D9F040630F5003030C5
:101D6600F400F40BB42EF50BB42E0000831203130B
:101D76009F149F18BF2EC02EBC2E1E08F30083167C
:101D860003131E08F200080083120313AA01AB0115
:101D9600E42E2908F900FA017908F2007A08F3001E
:101DA6007708F4007808F5000A128A114A240A1204
:101DB6008A15013083120313AA070318AB0A0030F1
:101DC600AB072A087607F900790884008313000810
:101DD600A9002908031DF02EF12ECC2E080072084A
:101DE60073040319F72EF82E252F0130F600042F61
:101DF60001300310F20DF30DFF3E031DFC2E0130E2
:101E0600F607F31F072F082FFB2E73087502031D15
:101E16000E2F72087402031C112F122F182F72082E
:101E2600F4027308031CF503F50201300310F30CEA
:101E3600F20CFF3E031D192F0130F602031D242F5D
:101E4600252F082F7508F3007408F2000800F90121
:101E5600FA0183120313200821040319332F342FA8
:101E6600692F0130F800402F01300310A00DA10D9D
:101E7600FF3E031D382F0130F807A11F432F442FC3
:101E8600372F01300310F90DFA0DFF3E031D452FC4
:101E960021082302031D512F20082202031C542F60
:101EA600552F5C2F2008A2022108031CA303A302BE
:101EB600791401300310A10CA00CFF3E031D5D2F09
:101EC6000130F802031D682F692F442F7A08A100FC
:101ED6007908A000080083120313A301A401972F19
:101EE60023087807A1007908A0000318A00AA31FF9
:101EF6007D2FA003831203132008A2002208FF00EF
:101F0600210884000A128A1192270A128A150A12D7
:101F16008A1183250A128A15013083120313A30737
:101F26000318A40A0030A40723087807A10079083B
:101F3600A0000318A00AA31FA12FA0038312031356
:101F46002008A2002208FF00210884000A128A1134
:101F560092270A128A15003A031DB22FB32F732F48
:101F66000800003083120313A3000030A2000030E3
:101F7600A1000030A000721CC12FC22FDB2F7608F3
:101F860083120313A007770803110318013E0319F0
:101F9600CD2FA107780803110318013E0319D42F8A
:101FA600A207790803110318013E0319DB2FA307C3
:101FB6000130FA000310F60DF70DF80DF90DFA0BC6
:101FC600DD2F01300310F50CF40CF30CF20CFF3E80
:101FD600031DE52F7508740473047204031DF42FA2
:101FE600F52FBE2F831203132308F5002208F400F1
:0A1FF6002108F3002008F2000800A3
:04400E00F12FFF3F50
:00000001FF
