:060000000A128A110C280F
:10000800FE00030EF0000A08F1000A128A11A42E5D
:100018000A128A110F28831603130A128A11A727B6
:100028000A128A11D9000A128A11A8270A128A11FB
:10003800DA000A128A11A9270A128A11DB000A12A9
:100048008A11AA270A128A11DC000A128A11AB2720
:100058000A128A11DD008313A0308400D0300A12FE
:100068008A119F270A128A1183120313E101E20100
:10007800E301E401E501E601E701FB0183010A125E
:100088008A1146280A128A1194270A128A11D03036
:10009800840083160313590883138000840A5A08BE
:1000A8008000840A5B088000840A5C088000840A57
:1000B8005D0880002030840050088000840A5108C0
:1000C8008000840A52088000840A53088000840A49
:1000D800540880000A128A1181220A128A110030FB
:1000E8000A128A113C250A128A1101300A128A1151
:1000F8003C250A128A1108300A128A113C250A1274
:100108008A1100300A128A113C250A128A110B3012
:10011800F8008030F9000A128A11E4250A128A11BF
:100128000C300A128A113C250A128A1100300A1270
:100138008A113C250A128A111430F8008030F9001F
:100148000A128A11E4250A128A110C300A128A113D
:100158003C250A128A1100300A128A113C250A121B
:100168008A113C30F2000030F30083120313670851
:10017800F5006608F4000A128A112A260A128A1162
:10018800730883160313D6007208D5003C30F200BA
:100198000030F300831203136708F5006608F400C3
:1001A8000A128A116C260A128A117308831603131D
:1001B800D8007208D700C63083120313CE0001306E
:1001C800CF0083160313560883120313D100831636
:1001D8000313550883120313D0008316031358081A
:1001E80083120313D30083160313570883120313D0
:1001F800D2000A128A114E270A128A11C630F80054
:100208000030F9000A128A11E4250A128A11A92875
:100218000A128A110C28F400741C1329142929299C
:1002280083120313610884008317621C831301304F
:10023800F20064080739013E23290310F20DFF3E3E
:10024800031D2129720880043E29831203136108C3
:1002580084008317621C83130130F2006408073995
:10026800013E38290310F20DFF3E031D362972089E
:10027800FF3A8005F41C4129422958296108840065
:100288008317621C83130130F200640CF300F30C33
:10029800730C0739013E52290310F20DFF3E031D6E
:1002A8005029720880046E29610884008317621C33
:1002B80083130130F200640CF300F30C730C07395C
:1002C800013E68290310F20DFF3E031D66297208DE
:1002D800FF3A8005741D71297229852961088400F7
:1002E8008317621C83130130F20065080739013E49
:1002F8007F290310F20DFF3E031D7D29720880043B
:100308009829610884008317621C83130130F20066
:1003180065080739013E92290310F20DFF3E031DBF
:1003280090297208FF3A8005F41D9B299C29B2295F
:10033800610884008317621C83130130F200650C86
:10034800F300F30C730C0739013EAC290310F20DCE
:10035800FF3E031DAA2972088004C8296108840089
:100368008317621C83130130F200650CF300F30C51
:10037800730C0739013EC2290310F20DFF3E031D1D
:10038800C0297208FF3A80050800831203133F084A
:1003980084008313000884000A128A110A270A12AB
:1003A8008A11253A031DD929DA29672A3F088400CA
:1003B8000130800783160313A001A1010030FB0060
:1003C800FF30A200FF30A30083120313C701022AE3
:1003D800FB143F08840001308007022A0130C7005F
:1003E800022A3F088400000884000A128A110A279A
:1003F8000A128A11303A0319EC29F229470803191D
:10040800062A072AF5293F08F8004008F9000A12C9
:100418008A11E5240A128A11790883160313A100A8
:100428007808A000A11F192A1A2A202A7B14A009DB
:10043800A109A00A0319A10A831203133F08840023
:1004480083130008C800480884000A128A110A2782
:100458000A128A11753A031D322A332A5F2A400884
:1004680084000008C10002308007410884000008A9
:10047800C300840A0008C4003F0884004808013EFD
:100488008000542A3D08B4003E08B5004408B7006F
:100498004308B6000A128A115F240A128A11802AB8
:1004A800480884000A128A110A270A128A11753A22
:1004B8000319462A5F2A831203133F088400013078
:1004C80083138007802A3F088400000884000A12EA
:1004D8008A110A270A128A11C100C2014108F200D2
:1004E8004208F3003D08F4003E08F5000A128A119C
:1004F8002D230A128A115F2A0800613084008312B2
:100508000313200883138000840A21088000840ACA
:1005180022088000840A23088000840A24088000B6
:1005280000306206031D9A2A05306106031D9D2AC4
:100538009E2AA22A831603138501BD2A003062066B
:10054800031DA82A06306106031DAB2AAC2AB02A6F
:10055800831603138601BD2A00306206031DB62ADE
:1005680007306106031DB92ABA2A2C2B83160313F8
:1005780087011A30F900F830F800F80BC12AF90B96
:10058800C12A000003300A128A113C250A128A1176
:100598000730F9007D30F800F80BD02AF90BD02A83
:1005A80003300A128A113C250A128A111530F90003
:1005B800C630F800F80BDE2AF90BDE2A00000330FB
:1005C8000A128A113C250A128A1102300A128A116B
:1005D8003C250A128A1102300A128A113C250A1295
:1005E8008A1108300A128A113C250A128A11003031
:1005F8000A128A113C250A128A1106300A128A1137
:100608003C250A128A110830FA007A157A08F8008F
:1006180004300310F80CFF3E031D0D2B78080F392A
:100628000A128A113C250A128A117A080F390A120D
:100638008A113C250A128A1100300A128A113C25B7
:100648000A128A1101300A128A113C250A128A11EB
:100658000800740875040319322B332B392B7408DE
:100668007504031D382B392B402B72080A128A1186
:10067800AC270A128A11CC2B7408093E8312031383
:10068800A00075080318013E003EA1002008840060
:100698008317211C83130008A200840A0008A30002
:1006A800220823040319592B5A2B8C2B7408093E52
:1006B800A00075080318013E003EA1002008840030
:1006C8008317211C83130008A200840A0008A300D2
:1006D8007408023EA40075080318013E003EA500F8
:1006E800240884008317251C83130008A600840AA5
:1006F8000008A7002708803AA8002308803A2802A3
:10070800031D882B2208260203188B2B8C2BCC2B3D
:10071800740884008317751C83130008831203135D
:10072800A000840A0008A1007408023EA20075080F
:100738000318013E003EA300220884008317231CEF
:10074800831300082007A5002108A4000318A40AA1
:10075800801FAF2BA403831203132408A6002508C7
:1007680084008317261C8313720880007408023ED5
:10077800A00075080318013E003EA100200884006F
:100788008317211C831301308007840A0318800A09
:100798000800F70083120313610884008317621CA2
:1007A80083130130F50063080739013EDD2B031080
:1007B800F50DFF3E031DDB2B750880047708F50057
:1007C80004300310F50CFF3E031DE52B75080F39A7
:1007D8000A128A110F210A128A118312031361085F
:1007E80084008317621C83130130F500630CF60044
:1007F800F60C760C0739013E032C0310F50DFF3E6D
:10080800031D012C750880040D30F500F50B0A2C2A
:1008180083120313610884008317621C8313013059
:10082800F500630CF600F60C760C0739013E1E2C19
:100838000310F50DFF3E031D1C2C7508FF3A8005BB
:1008480077080F390A128A110F210A128A118312A6
:100858000313610884008317621C83130130F500B9
:10086800630CF600F60C760C0739013E3D2C03109C
:10087800F50DFF3E031D3B2C750880040D30F50077
:10088800F50B442C83120313610884008317621C40
:1008980083130130F500630CF600F60C760C07396B
:1008A800013E582C0310F50DFF3E031D562C75080C
:1008B800FF3A80050800013083120313B80083163D
:1008C8000313210883120313BA00831603132008A5
:1008D80083120313B9001F30BB000030BC0083161D
:1008E8000313C501AF2CFF3083120313BB07031892
:1008F800BC0AFF30BC073B08A63E84000A30F20061
:100908000030F3003708F5003608F4000A128A119F
:100918006C260A128A117208303E831380008312F3
:100928000313B801FF30B9070318BA0AFF30BA0732
:100938000A30F2000030F3003708F5003608F400FA
:100948000A128A112A260A128A11730883120313BB
:10095800B7007208B60083123B083C040319B52C93
:10096800B62CD22C36083704031DBB2CBC2C772C94
:100978003808031DC02CC12C772C3A08803AFF0098
:1009880080307F02031DCA2C01303902031CCD2C94
:10099800CE2CD22CFB18D12CD22C772C83120313FB
:1009A8003408AC003508AD003B08A63EAE003A0856
:1009B800B0003908AF000A128A1191250A128A116B
:1009C800080083120313A101A2017808840083138D
:1009D800000884000A128A110A270A128A112A3A80
:1009E800031DF72CF82C262D780884000130800789
:1009F800790884000008FA00023080077A08840029
:100A08000008A100840A0008A200372D2208F3007C
:100A18002108F2000A30F4000030F5000A128A11A9
:100A280029270A128A118312031320087207A100CA
:100A38000030031801307307A200780884000130E1
:100A48008313800778088400000884000A128A113A
:100A58000A270A128A11D03EA0000A302002031C7D
:100A6800362D372D0A2D2208F9002108F800080034
:100A7800F70083120313610884008317621C831331
:100A88000130F50063080739013E4C2D0310F50DC0
:100A9800FF3E031D4A2D7508FF3A800577080A12A4
:100AA8008A110F210A128A11831203136108840024
:100AB8008317621C83130130F500630CF600F60CF3
:100AC800760C0739013E6A2D0310F50DFF3E031D14
:100AD800682D750880040630F6003030F500F50BF7
:100AE800732DF60B732D0000831203136108840025
:100AF8008317621C83130130F500630CF600F60CB3
:100B0800760C0739013E8A2D0310F50DFF3E031DB3
:100B1800882D7508FF3A800508007B1C942D952DBB
:100B2800A22D831203132E08F6002C08F7002D08B7
:100B3800F8000A128A11D1260A128A1183120313A5
:100B4800B01FA72DA82DAA2DAF01B001B201B30186
:100B5800C42D2030F2000030F300831203132C0858
:100B6800F4002D08F5000A128A112D230A128A11A1
:100B7800013083120313B2070318B30A0030B30716
:100B88003308803AB1003008803A3102031DCE2D77
:100B98002F083202031CD12DD22DAD2D7B18D52D57
:100BA800D62DE32D831203132E08F6002C08F70028
:100BB8002D08F8000A128A11D1260A128A11080093
:100BC80083120313A301A4010D2E23087807A100A3
:100BD8007908A0000318A00AA31FF32DA00383120D
:100BE80003132008A2002208FF00210884000A122B
:100BF8008A1100270A128A110A128A11CD230A12B1
:100C08008A11013083120313A3070318A40A0030C2
:100C1800A40723087807A1007908A0000318A00AF0
:100C2800A31F172EA003831203132008A200220873
:100C3800FF00210884000A128A1100270A128A116B
:100C4800003A031D282E292EE92D0800F701F80186
:100C5800720873040319312E322E672E0130F60004
:100C68003E2E01300310F20DF30DFF3E031D362E0C
:100C78000130F607F31F412E422E352E01300310A6
:100C8800F70DF80DFF3E031D432E73087502031D73
:100C98004F2E72087402031C522E532E5A2E7208BD
:100CA800F4027308031CF503F502771401300310EE
:100CB800F30CF20CFF3E031D5B2E0130F602031D00
:100CC800662E672E422E7808F3007708F200080097
:100CD800720873040319712E722E9F2E0130F600CC
:100CE8007E2E01300310F20DF30DFF3E031D762E0C
:100CF8000130F607F31F812E822E752E73087502B8
:100D0800031D882E72087402031C8B2E8C2E922EC3
:100D18007208F4027308031CF503F502013003108E
:100D2800F30CF20CFF3E031D932E0130F602031D57
:100D38009E2E9F2E822E7508F3007408F20008007C
:100D48000B1DA72EA82ECA2E013083160313A40745
:100D58000318A50A0030A5070030250265300319DD
:100D68002402031CB82EB92EC52E0130831203139A
:100D7800E6070318E70A0030E70783160313A40100
:100D8800A501B2308312031381000B1171088A0088
:100D9800700E8300FE0E7E0E090083120313AA0153
:100DA800AB01EE2E2908F900FA017908F2007A0859
:100DB800F3007708F4007808F5000A128A112D2349
:100DC8000A128A11013083120313AA070318AB0A07
:100DD8000030AB072A087607F900790884008313E6
:100DE8000008A9002908031DFA2EFB2ED62E08009C
:100E0000FF1B0A2F83137F1883170008840A031916
:100E1000FF0A080007308A000408840A82070034A9
:100E200025343034323475343A3425343034323465
:100E3000753400345434693465346D3470346F342F
:100E40003B3420340034303430343A3430343034AD
:100E50000034F601F701721C2E2F2F2F352F740846
:100E6000F6070318F70A7508F70701300310F40DA9
:100E7000F50DFF3E031D362F01300310F30CF20C6D
:100E8000FF3E031D3D2F72087304031D482F492F99
:100E90002B2F7708F3007608F200080050308312F9
:100EA0000313D5004E08D6000030D700D801D90171
:100EB000DF01E0015630C9000030CA004F08CB0006
:100EC0005530CC000A128A1171270A128A11831236
:100ED000031358084E07D40054088400831380017C
:100EE0000800831203134B08CD00832F4908BD006F
:100EF0004A08BE004D30BF004C08C0000A128A11DB
:100F0000C9210A128A11831203134D0884000A12A0
:100F10008A110A270A128A11003A031D902F912F75
:100F2000762FC901CA010800073083160313810018
:100F3000B2308312031381008B168B1708006400F4
:100F40008001840A0406031900340406A02F073424
:0A0F500000341A342C343E3408003B
:04400E00F12FFF3F50
:00000001FF
