:060000000A128A110C280F
:10000800FE00030EF0000A08F1000A128A15D72F25
:100018000A128A110F28831603130A128A15182741
:100028000A128A11E1000A128A1519270A128A117E
:10003800E2000A128A151A270A128A11E3000A1224
:100048008A151B270A128A11E4000A128A151C272E
:100058000A128A11E5008313A0308400E1300A12E5
:100068008A11F7270A128A11FB0183010A128A11E1
:100078003D280A128A151D270A128A110A128A15A2
:1000880028270A128A119030840083160313610806
:1000980083178000840A62088000840A630880004D
:1000A800840A64088000840A65088000203084007F
:1000B80083160317100883138000840A1108800030
:1000C800840A12088000840A13088000840A14082D
:1000D80080000A128A11F5220A128A1100300A12C7
:1000E8008A1145260A128A1101300A128A114526F8
:1000F8000A128A110A128A1536270A128A117308F7
:1001080083160317960072089500003083120313B4
:10011800A7000030A6000330A500FF30A400831616
:1001280003171508F2001608F300F401F501003072
:10013800F9000030F800C330F7005030F6000A121A
:100148008A11ED260A128A11750883120313AB006F
:100158007408AA007308A9007208A8000A128A1174
:100168003D240A128A1183120313250883160317E4
:10017800A000831203132408831603179F0010306E
:10018800F2002730F3002008F5001F08F4000A12D7
:100198008A1139270A128A117308831603179800DF
:1001A800720897001030F2002730F3002008F5009D
:1001B8001F08F4000A128A117B270A128A11730891
:1001C800831603179A007208990008300A128A11D8
:1001D80045260A128A1100300A128A1145260A1287
:1001E8008A11CD3083120313CE000B30CF00831653
:1001F8000317180883120313D1008316031717086F
:1002080083120313D000831603171A0883120313EB
:10021800D30083160317190883120313D2000A1296
:100228008A156B270A128A11CD30F8000A128A152E
:100238008E270A128A113C30F2000030F300831630
:1002480003132C08F5002B08F4000A128A11392729
:100258000A128A117308831603179C0072089B0000
:100268003C30F2000030F300831603132C08F5002D
:100278002B08F4000A128A117B270A128A117308C4
:10028800831603179E0072089D00D730831203134C
:10029800CE000130CF00831603171C088312031306
:1002A800D100831603171B0883120313D00083168B
:1002B80003171E0883120313D300831603171D08A0
:1002C80083120313D2000A128A156B270A128A11A5
:1002D8000C300A128A1145260A128A110B300A12AA
:1002E8008A1145260A128A11D730F8000A128A158F
:1002F8008E270A128A117E280A128A110C28F40005
:10030800741C872988299D298316031320088400D3
:100318008317211C83130130F20023080739013E9B
:1003280097290310F20DFF3E031D952972088004DA
:10033800B22983160313200884008317211C831312
:100348000130F20023080739013EAC290310F20DF1
:10035800FF3E031DAA297208FF3A8005F41CB5293F
:10036800B629CC29200884008317211C8313013067
:10037800F200230CF300F30C730C0739013EC62975
:100388000310F20DFF3E031DC42972088004E22900
:10039800200884008317211C83130130F200230CEA
:1003A800F300F30C730C0739013EDC290310F20D3E
:1003B800FF3E031DDA297208FF3A8005741DE529FE
:1003C800E629F929200884008317211C83130130AA
:1003D800F20024080739013EF3290310F20DFF3E0D
:1003E800031DF129720880040C2A20088400831751
:1003F800211C83130130F20024080739013E062A24
:100408000310F20DFF3E031D042A7208FF3A80050F
:10041800F41D0F2A102A262A200884008317211C7D
:1004280083130130F200240CF300F30C730C07392A
:10043800013E202A0310F20DFF3E031D1E2A7208FA
:1004480080043C2A200884008317211C8313013070
:10045800F200240CF300F30C730C0739013E362A22
:100468000310F20DFF3E031D342A7208FF3A80057F
:100478000800831203133F088400831300088400D4
:100488000A128A11DE270A128A11253A031D4D2AFB
:100498004E2ADB2A3F0884000130800783160313A5
:1004A800A501A6010030FB00FF30A700FF30A8001F
:1004B80083120313C701762AFB143F088400013016
:1004C8008007762A0130C700762A3F088400000892
:1004D80084000A128A11DE270A128A11303A031997
:1004E800602A662A470803197A2A7B2A692A3F085C
:1004F800F8004008F9000A128A11EE250A128A113A
:10050800790883160313A6007808A500A61F8D2A6C
:100518008E2A942A7B14A509A609A50A0319A60AF6
:10052800831203133F08840083130008C800480897
:1005380084000A128A11DE270A128A11753A031DED
:10054800A62AA72AD32A400884000008C10002303E
:100558008007410884000008C300840A0008C4001A
:100568003F0884004808013E8000C82A3D08B400BE
:100578003E08B5004408B7004308B6000A128A11BD
:1005880068250A128A11F42A480884000A128A1176
:10059800DE270A128A11753A0319BA2AD32A831256
:1005A80003133F088400013083138007F42A3F08AF
:1005B8008400000884000A128A11DE270A128A11B0
:1005C800C100C2014108F2004208F3003D08F400EE
:1005D8003E08F5000A128A119D230A128A11D32AAD
:1005E8000800A030840083120313200883138000BE
:1005F800840A21088000840A22088000840A2308CB
:100608008000840A24088000003083160313210622
:10061800031D102B05302006031D132B142B162B3E
:1006280085012D2B00302106031D1C2B06302006CA
:10063800031D1F2B202B222B86012D2B003021067A
:10064800031D282B07302006031D2B2B2C2B9C2B3E
:1006580087011A30F900F830F800F80B312BF90B44
:10066800312B000003300A128A1145260A128A111A
:100678000730F9007D30F800F80B402BF90B402BC0
:1006880003300A128A1145260A128A111530F90018
:10069800C630F800F80B4E2BF90B4E2B0000033038
:1006A8000A128A1145260A128A1102300A128A1180
:1006B80045260A128A1102300A128A1145260A12A0
:1006C8008A1108300A128A1145260A128A11003046
:1006D8000A128A1145260A128A1106300A128A114C
:1006E80045260A128A110830FA007A157A08F800A5
:1006F80004300310F80CFF3E031D7D2B78080F39DA
:100708000A128A1145260A128A117A080F390A1222
:100718008A1145260A128A1100300A128A114526C2
:100728000A128A1101300A128A1145260A128A1100
:100738000800740875040319A22BA32BA92B7408AD
:100748007504031DA82BA92BB02B72080A128A1155
:10075800FF270A128A113C2C7408093E83120313DE
:10076800A00075080318013E003EA100200884007F
:100778008317211C83130008A200840A0008A30021
:10078800220823040319C92BCA2BFC2B7408093E21
:10079800A00075080318013E003EA100200884004F
:1007A8008317211C83130008A200840A0008A300F1
:1007B8007408023EA40075080318013E003EA50017
:1007C800240884008317251C83130008A600840AC4
:1007D8000008A7002708803AA8002308803A2802C2
:1007E800031DF82B220826020318FB2BFC2B3C2C9C
:1007F800740884008317751C83130008831203137D
:10080800A000840A0008A1007408023EA20075082E
:100818000318013E003EA300220884008317231C0E
:10082800831300082007A5002108A4000318A40AC0
:10083800801F1F2CA403831203132408A600250875
:1008480084008317261C8313720880007408023EF4
:10085800A00075080318013E003EA100200884008E
:100868008317211C831301308007840A0318800A28
:10087800080083120313AE01A71F432C442C512CEC
:10088800A409A509A609A709A40A0319A50A031911
:10089800A60A0319A70A0130AE00AB1F542C552C29
:1008A800622CA809A909AA09AB09A80A0319A90A67
:1008B8000319AA0A0319AB0A0130AE060030B200C8
:1008C8000030B1000030B0000030AF002708260427
:1008D800250424040319712C722CBD2C0130AD00A1
:1008E800802C0130AC000310A40DA50DA60DA70D9A
:1008F800AC0B772C0130AD07A71F832C842C752CEB
:100908000130AC000310AF0DB00DB10DB20DAC0B42
:10091800862C27082B02031D9B2C26082A02031D60
:100928009B2C25082902031D9B2C24082802031C44
:100938009E2C9F2CAE2C2408A8022508031C250FEA
:10094800A9022608031C260FAA022708031C270F42
:10095800AB022F1401300310A70CA60CA50CA40C95
:10096800FF3E031DAF2C0130AD02031DBC2CBD2C76
:10097800842C2E080319C12CC22CCD2CAF09B00928
:10098800B109B209AF0A0319B00A0319B10A031968
:10099800B20A3208A7003108A6003008A5002F08BF
:1009A800A4000800F70083160313200884008317A7
:1009B800211C83130130F50022080739013EE62C7B
:1009C8000310F50DFF3E031DE42C7508800477081D
:1009D800F50004300310F50CFF3E031DEE2C7508DE
:1009E8000F390A128A1183210A128A1183160313F6
:1009F800200884008317211C83130130F500220C82
:100A0800F600F60C760C0739013E0C2D0310F50D97
:100A1800FF3E031D0A2D750880040D30F500F50B07
:100A2800132D83160313200884008317211C8313B6
:100A38000130F500220CF600F60C760C0739013E61
:100A4800272D0310F50DFF3E031D252D7508FF3AD0
:100A5800800577080F390A128A1183210A128A1130
:100A680083160313200884008317211C8313013085
:100A7800F500220CF600F60C760C0739013E462DDF
:100A88000310F50DFF3E031D442D750880040D303D
:100A9800F500F50B4D2D83160313200884008317EA
:100AA800211C83130130F500220CF600F60C760C9D
:100AB8000739013E612D0310F50DFF3E031D5F2D23
:100AC8007508FF3A80050800013083120313B80047
:100AD80083160313260883120313BA00831603131D
:100AE800250883120313B9001F30BB000030BC0077
:100AF80083160313CC01B82DFF3083120313BB07F1
:100B08000318BC0AFF30BC073B08AD3E84000A301E
:100B1800F2000030F3003708F5003608F4000A1236
:100B28008A117B270A128A117208303E83138000CB
:100B380083120313B801FF30B9070318BA0AFF304C
:100B4800BA070A30F2000030F3003708F50036081B
:100B5800F4000A128A1139270A128A1173088312BB
:100B68000313B7007208B60083123B083C0403194C
:100B7800BE2DBF2DDB2D36083704031DC42DC52D12
:100B8800802D3808031DC92DCA2D802D3A08803ABA
:100B9800FF0080307F02031DD32D01303902031C72
:100BA800D62DD72DDB2DFB18DA2DDB2D802D8312CA
:100BB80003133408AC003508AD003B08AD3EAE0069
:100BC8003A08B0003908AF000A128A119A260A12A8
:100BD8008A11080083120313A101A2017808840076
:100BE8008313000884000A128A11DE270A128A1168
:100BF8002A3A031D002E012E2F2E7808840001307A
:100C08008007790884000008FA00023080077A0813
:100C180084000008A100840A0008A200402E2208CF
:100C2800F3002108F2000A30F4000030F5000A123F
:100C38008A15B2270A128A11831203132008720731
:100C4800A1000030031801307307A200780884005F
:100C580001308313800778088400000884000A1292
:100C68008A11DE270A128A11D03EA0000A3020021B
:100C7800031C3F2E402E132E2208F9002108F800ED
:100C88000800F70083160313200884008317211C2B
:100C980083130130F50022080739013E552E031051
:100CA800F50DFF3E031D532E7508FF3A80057708A2
:100CB8000A128A1183210A128A1183160313200843
:100CC80084008317211C83130130F500220CF600E1
:100CD800F60C760C0739013E732E0310F50DFF3E16
:100CE800031D712E750880040630F6003030F500BB
:100CF800F50B7C2EF60B7C2E0000831603132008C0
:100D080084008317211C83130130F500220CF600A0
:100D1800F60C760C0739013E932E0310F50DFF3EB5
:100D2800031D912E7508FF3A800508007B1C9D2E37
:100D38009E2EAB2E831203132E08F6002C08F70004
:100D48002D08F8000A128A11B3270A128A11831291
:100D58000313B01FB02EB12EB32EAF01B001B201F4
:100D6800B301CD2E2030F2000030F30083120313BC
:100D78002C08F4002D08F5000A128A119D230A1286
:100D88008A11013083120313B2070318B30A003023
:100D9800B3073308803AB1003008803A3102031DA6
:100DA800D72E2F083202031CDA2EDB2EB62E7B1824
:100DB800DE2EDF2EEC2E831203132E08F6002C08ED
:100DC800F7002D08F8000A128A11B3270A128A11AF
:100DD8000800003083120313A3000030A200003083
:100DE800A1000030A000721CFA2EFB2E142F7608EA
:100DF80083120313A007770803110318013E031990
:100E0800062FA107780803110318013E03190D2FB7
:100E1800A207790803110318013E0319142FA30729
:100E28000130FA000310F60DF70DF80DF90DFA0B65
:100E3800162F01300310F50CF40CF30CF20CFF3EE6
:100E4800031D1E2F7508740473047204031D2D2FCF
:100E58002E2FF72E831203132308F5002208F4001F
:100E68002108F3002008F2000800F701F8017208D1
:100E780073040319402F412F762F0130F6004D2FB0
:100E880001300310F20DF30DFF3E031D452F013015
:100E9800F607F31F502F512F442F01300310F70D81
:100EA800F80DFF3E031D522F73087502031D5E2FB8
:100EB80072087402031C612F622F692F7208F402F2
:100EC8007308031CF503F502771401300310F30CC3
:100ED800F20CFF3E031D6A2F0130F602031D752F29
:100EE800762F512F7808F3007708F200080072086F
:100EF80073040319802F812FAE2F0130F6008D2F38
:100F080001300310F20DF30DFF3E031D852F013054
:100F1800F607F31F902F912F842F73087502031D76
:100F2800972F72087402031C9A2F9B2FA12F720807
:100F3800F4027308031CF503F50201300310F30CE7
:100F4800F20CFF3E031DA22F0130F602031DAD2F48
:100F5800AE2F912F7508F3007408F2000800831271
:100F68000313AA01AB01D02F2908F900FA01790867
:100F7800F2007A08F3007708F4007808F5000A12FE
:100F88008A119D230A128A11013083120313AA07BA
:100F98000318AB0A0030AB072A087607F90079086E
:100FA800840083130008A9002908031DDC2FDD2F06
:100FB800B82F080007308A000408840A8207003422
:100FC80025343034323475343A34253430343234BC
:100FD80075340034253475342E34253430343434A3
:100FE80075345634003464008001840A04060319F9
:080FF80000340406F82F080084
:101E3000073400341A342C343E340730831603132D
:101E40008100B2308312031381008B168B170800B8
:101E50000130831603178800890181308312031330
:101E60009F008030831603139F0008000330F400A6
:101E7000F40B382F831203139F149F18402F412F08
:101E80003D2F1E08F300831603131E08F2000800FE
:101E9000831203134B08CD005A2F4908BD004A088E
:101EA000BE004D30BF004C08C0000A128A113D220E
:101EB0000A128A15831203134D0884000A128A112C
:101EC000DE270A128A15003A031D672F682F4D2F4F
:101ED000C901CA010800503083120313D5004E080F
:101EE000D6000030D700D801D901DF01E00156301B
:101EF000C9000030CA004F08CB005530CC000A1290
:101F00008A1548270A128A158312031358084E07A8
:101F1000D400540884008313800108008312031343
:101F2000A001A101A62F20087807F90079088400F4
:101F300000080A128A11D6240A128A150130831267
:101F40000313A0070318A10A0030A107200878078F
:101F5000F9007908840083130008031DB02FB12F06
:101F6000932F0800F601F701721CB72FB82FBE2F70
:101F70007408F6070318F70A7508F707013003100D
:101F8000F40DF50DFF3E031DBF2F01300310F30CC0
:101F9000F20CFF3E031DC62F72087304031DD12FE0
:101FA000D22FB42F7708F3007608F20008000B1D3B
:101FB000DA2FDB2FF92F013083160313A90703183B
:101FC000AA0A0030AA0700302A0265300319290244
:101FD000031CEB2FEC2FF42F0130AB070318AC0AD6
:101FE0000030AC07A901AA01B230831203138100AB
:101FF0000B1171088A00700E8300FE0E7E0E090020
:04400E00F12FFF3F50
:00000001FF
