:060000000A128A11FC2F18
:100C1200033083160317880089018030831603137B
:100C22009F000130831203139F00080083160313F1
:100C32008701F93092000C308312031397000C30B5
:100C42009D00073092000800F4000330F200F20B1E
:100C5200282E8330831203139F057408F20001309B
:100C62000310F20DFF3E031D312E0310720D9F047F
:100C72000630F3003030F200F20B3D2EF30B3D2E26
:100C82000000831203139F149F18482E492E452EED
:100C92001E08F100831603131E08F000080000303E
:100CA200FC000030FB000030FA000030F900701C3C
:100CB2005B2E5C2E732E7408F90775080311031856
:100CC200013E0319652EFA07760803110318013E47
:100CD20003196C2EFB07770803110318013E031951
:100CE200732EFC070130F8000310F40DF50DF60D1C
:100CF200F70DF80B752E01300310F30CF20CF10C0A
:100D0200F00CFF3E031D7D2E730872047104700403
:100D1200031D8C2E8D2E582E7C08F3007B08F200CA
:100D22007A08F1007908F0000800003083120313FA
:100D3200AB000030AA000030A9000030A800230850
:100D42002204210420040319A72EA82EF32E013019
:100D5200AC00B62E0130FD000310A00DA10DA20DB6
:100D6200A30DFD0BAD2E0130AC07A31FB92EBA2E79
:100D7200AB2E0130FD000310A80DA90DAA0DAB0D7D
:100D8200FD0BBC2E23082702031DD12E22082602AA
:100D9200031DD12E21082502031DD12E2008240275
:100DA200031CD42ED52EE42E2008A4022108031CF5
:100DB200210FA5022208031C220FA6022308031CEE
:100DC200230FA702281401300310A30CA20CA10CBC
:100DD200A00CFF3E031DE52E0130AC02031DF22ED6
:100DE200F32EBA2E2B08A3002A08A2002908A1007C
:100DF2002808A00008000A128A1109260A128A117C
:100E02000A128A1117260A128A1100300A128A114E
:100E120025260A128A11710883120313B000700882
:100E2200AF0001300A128A1125260A128A117108AE
:100E320083120313B2007008B1000030A300003027
:100E4200A2000330A100FF30A0002F08F0003008FC
:100E5200F100F201F3010030F7000030F60000303B
:100E6200F500F930F4000A128A1150260A128A118A
:100E7200730883120313A7007208A6007108A50065
:100E82007008A4000A128A1196260A128A11831285
:100E920003132308BA002208B9002108B800200869
:100EA200B7000030A3000030A2000330A100FF30E1
:100EB200A0003108F0003208F100F201F301003025
:100EC200F7000030F6000030F500F930F4000A12A5
:100ED2008A1150260A128A11730883120313A7007B
:100EE2007208A6007108A5007008A4000A128A11EF
:100EF20096260A128A11831203132308BE002208BF
:100F0200BD002108BC002008BB000030A300003057
:100F1200A2000030A100F930A0003A08F30039081D
:100F2200F2003808F1003708F0003A08F7003908F3
:100F3200F6003808F5003708F4000A128A11502624
:100F42000A128A11730883120313A7007208A600FB
:100F52007108A5007008A4000A128A1196260A12C6
:100F62008A11831203132108B4002008B300003051
:100F7200A3000030A2000030A100F930A0003E081A
:100F8200F3003D08F2003C08F1003B08F0003E0887
:100F9200F7003D08F6003C08F5003B08F4000A1291
:100FA2008A1150260A128A11730883120313A700AA
:100FB2007208A6007108A5007008A4000A128A111E
:100FC20096260A128A11831203132108B6002008FA
:100FD200B5003308950035089B00343083120313A3
:100FE200AE00F130AD00AD0BF42FAE0BF42F062F97
:0E0FF2000A128A11002883010A128A11FC2EAD
:04400E00F12FFF3F50
:00000001FF
