:060000000A128A110C280F
:10000800FE00030EF0000A08F1000A128A11682F98
:100018000A128A110F28831603130A128A119F27BE
:100028000A128A11D7000A128A11A0270A128A1105
:10003800D8000A128A11A1270A128A11D9000A12B5
:100048008A11A2270A128A11DA000A128A11A32732
:100058000A128A11DB008313A0308400CE300A1202
:100068008A1197270A128A1183120313E201E30106
:10007800E401E501E601E701E801FA01FB0183017A
:100088000A128A1147280A128A1189270A128A1124
:10009800CE30840083160313570883138000840A24
:1000A80058088000840A59088000840A5A08800089
:1000B800840A5B088000203084004E088000840A8F
:1000C8004F088000840A50088000840A5108800084
:1000D800840A520880000A128A1182220A128A119E
:1000E80000300A128A1141250A128A1101300A12B7
:1000F8008A1141250A128A1108300A128A114125EB
:100108000A128A1100300A128A1141250A128A112C
:100118000B30F8008030F9000A128A11E9250A121A
:100128008A110C300A128A1141250A128A110030EC
:100138000A128A1141250A128A111430F8008030F7
:10014800F9000A128A11E9250A128A110C300A12DA
:100158008A1141250A128A1100300A128A11412592
:100168000A128A113C30F2000030F30083120313A4
:100178006808F5006708F4000A128A112F260A1287
:100188008A11730883160313D4007208D3003C3015
:10019800F2000030F300831203136808F5006708C3
:1001A800F4000A128A1171260A128A11730883163A
:1001B8000313D6007208D500C43083120313CF008E
:1001C8000130D00083160313540883120313D2009E
:1001D80083160313530883120313D10083160313E2
:1001E800560883120313D400831603135508831289
:1001F8000313D3000A128A1122270A128A11C43063
:10020800F8000030F9000A128A11E9250A128A1149
:10021800AA280A128A110C28F400741C142915291A
:100228002A2983120313620884008317631C83132B
:100238000130F20065080739013E24290310F20D48
:10024800FF3E031D2229720880043F2983120313ED
:10025800620884008317631C83130130F200650869
:100268000739013E39290310F20DFF3E031D3729D6
:100278007208FF3A8005F41C42294329592962086B
:1002880084008317631C83130130F200650CF300AC
:10029800F30C730C0739013E53290310F20DFF3E8E
:1002A800031D5129720880046F296208840083178E
:1002B800631C83130130F200650CF300F30C730C1C
:1002C8000739013E69290310F20DFF3E031D672916
:1002D8007208FF3A8005741D7229732986296208FD
:1002E80084008317631C83130130F2006608073902
:1002F800013E80290310F20DFF3E031D7E2972087E
:1003080080049929620884008317631C83130130D1
:10031800F20066080739013E93290310F20DFF3EEB
:10032800031D91297208FF3A8005F41D9C299D2917
:10033800B329620884008317631C83130130F20019
:10034800660CF300F30C730C0739013EAD2903105A
:10035800F20DFF3E031DAB2972088004C92962080B
:1003680084008317631C83130130F200660CF300CA
:10037800F30C730C0739013EC3290310F20DFF3E3D
:10038800031DC1297208FF3A800508008312031370
:10039800400884008313000884000A128A11DE26AC
:1003A8000A128A11253A031DDA29DB29682A40082E
:1003B80084000130800783160313A001A1010030D7
:1003C800FA00FF30A200FF30A30083120313C80114
:1003D800032AFA144008840001308007032A0130F8
:1003E800C800032A40088400000884000A128A1101
:1003F800DE260A128A11303A0319ED29F329480832
:100408000319072A082AF6294008F8004108F900C4
:100418000A128A11EA240A128A1179088316031328
:10042800A1007808A000A11F1A2A1B2A212A7A14E1
:10043800A009A109A00A0319A10A831203134008FD
:10044800840083130008C900490884000A128A112D
:10045800DE260A128A11753A031D332A342A602AC5
:10046800410884000008C200023080074208840066
:100478000008C400840A0008C50040088400490830
:10048800013E8000552A3E08B5003F08B6004508E1
:10049800B8004408B7000A128A1164240A128A11A3
:1004A800812A490884000A128A11DE260A128A1152
:1004B800753A0319472A602A8312031340088400F7
:1004C800013083138007812A4008840000088400D3
:1004D8000A128A11DE260A128A11C200C3014208D2
:1004E800F2004308F3003E08F4003F08F5000A1242
:1004F8008A1132230A128A11602A080062308400A5
:1005080083120313200883138000840A21088000C3
:10051800840A22088000840A23088000840A2408A8
:10052800800000306306031D9B2A05306206031D08
:100538009E2A9F2AA32A831603138501BE2A003008
:100548006306031DA92A06306206031DAC2AAD2ADC
:10055800B12A831603138601BE2A00306306031DE1
:10056800B72A07306206031DBA2ABB2A312B831625
:10057800031387011A30F900F830F800F80BC22A83
:10058800F90BC22A000003300A128A1141250A1207
:100598008A110730F9007D30F800F80BD12AF90BE1
:1005A800D12A03300A128A1141250A128A111530FC
:1005B800F900C630F800F80BDF2AF90BDF2A000033
:1005C80003300A128A1141250A128A1102300A12CE
:1005D8008A1141250A128A1102300A128A1141250C
:1005E8000A128A1108300A128A1141250A128A1140
:1005F80000300A128A1141250A128A1106300A129D
:100608008A1141250A128A11083083120313A500A2
:1006180025152508F80004300310F80CFF3E031DCB
:10062800102B78080F390A128A1141250A128A11EB
:100638008312031325080F390A128A1141250A1259
:100648008A1100300A128A1141250A128A110130D2
:100658000A128A1141250A128A11080074087504C1
:100668000319372B382B3E2B74087504031D3D2BBB
:100678003E2B452B72080A128A11A4270A128A11E6
:10068800D12B7408093E83120313A00075080318C0
:10069800013E003EA100200884008317211C83131B
:1006A8000008A200840A0008A300220823040319F2
:1006B8005E2B5F2B912B7408093EA0007508031868
:1006C800013E003EA100200884008317211C8313EB
:1006D8000008A200840A0008A3007408023EA400CF
:1006E80075080318013E003EA500240884008317FE
:1006F800251C83130008A600840A0008A700270801
:10070800803AA8002308803A2802031D8D2B22086E
:1007180026020318902B912BD12B74088400831781
:10072800751C8313000883120313A000840A0008B1
:10073800A1007408023EA20075080318013E003E9D
:10074800A300220884008317231C831300082007B2
:10075800A5002108A4000318A40A801FB42BA40331
:10076800831203132408A600250884008317261C77
:100778008313720880007408023EA00075080318ED
:10078800013E003EA100200884008317211C83132A
:1007980001308007840A0318800A0800F7008312D2
:1007A8000313620884008317631C83130130F50068
:1007B80064080739013EE22B0310F50DFF3E031DC7
:1007C800E02B750880047708F50004300310F50C59
:1007D800FF3E031DEA2B75080F390A128A111021F2
:1007E8000A128A1183120313620884008317631C98
:1007F80083130130F500640CF600F60C760C07390B
:10080800013E082C0310F50DFF3E031D062C75084C
:1008180080040D30F500F50B0F2C831203136208CA
:1008280084008317631C83130130F500640CF60001
:10083800F60C760C0739013E232C0310F50DFF3E0C
:10084800031D212C7508FF3A800577080F390A1215
:100858008A1110210A128A11831203136208840074
:100868008317631C83130130F500640CF600F60C43
:10087800760C0739013E422C0310F50DFF3E031D8F
:10088800402C750880040D30F500F50B492C8312B7
:100898000313620884008317631C83130130F50077
:1008A800640CF600F60C760C0739013E5D2C03103B
:1008B800F50DFF3E031D5B2C7508FF3A8005080007
:1008C800013083120313B90083160313210883121E
:1008D8000313BB0083160313200883120313BA0003
:1008E8001F30BC000030BD0083160313C301B42CB5
:1008F800FF3083120313BC070318BD0AFF30BD077E
:100908003C08A43E84000A30F2000030F3003808A6
:10091800F5003708F4000A128A1171260A128A11A2
:100928007208303E8313800083120313B901FF302D
:10093800BA070318BB0AFF30BB070A30F2000030C1
:10094800F3003808F5003708F4000A128A112F2638
:100958000A128A11730883120313B8007208B700C9
:1009680083123C083D040319BA2CBB2CD72C37083A
:100978003804031DC02CC12C7C2C3908031DC52C40
:10098800C62C7C2C3B08803AFF0080307F02031D78
:10099800CF2C01303A02031CD22CD32CD72CFA18B6
:1009A800D62CD72C7C2C831203133508AE003608BE
:1009B800AF003C08A43EB0003B08B2003A08B100C2
:1009C8000A128A1196250A128A1108008312031343
:1009D800A201A301780884008313000884000A1286
:1009E8008A11DE260A128A112A3A031DFC2CFD2CD4
:1009F8002B2D7808840001308007790884000008CE
:100A0800A00002308007200884000008A200840AA1
:100A18000008A3003C2D2308F3002208F2000A3046
:100A2800F4000030F5000A128A11FD260A128A1114
:100A38008312031321087207A20000300318013043
:100A48007307A300780884000130831380077808AF
:100A58008400000884000A128A11DE260A128A110C
:100A6800D03EA1000A302102031C3B2D3C2D0F2D46
:100A78002308F9002208F8000800F700831203137E
:100A8800620884008317631C83130130F50064082F
:100A98000739013E512D0310F50DFF3E031D4F2D63
:100AA8007508FF3A800577080A128A1110210A1280
:100AB8008A1183120313620884008317631C83134B
:100AC8000130F500640CF600F60C760C0739013E8F
:100AD8006F2D0310F50DFF3E031D6D2D7508800465
:100AE8000630F6003030F500F50B782DF60B782D32
:100AF800000083120313620884008317631C8313A6
:100B08000130F500640CF600F60C760C0739013E4E
:100B18008F2D0310F50DFF3E031D8D2D7508FF3A2F
:100B2800800508007A1C992D9A2DA72D831203138E
:100B38003008F6002E08F7002F08F8000A128A116C
:100B4800A9260A128A1183120313B21FAC2DAD2DE8
:100B5800AF2DB101B201B301B401C92D2030F200AB
:100B68000030F300831203132E08F4002F08F50059
:100B78000A128A1132230A128A11013083120313CE
:100B8800B3070318B40A0030B4073408803AF900F0
:100B98003208803A7902031DD32D31083302031C31
:100BA800D62DD72DB22D7A18DA2DDB2DE82D83120C
:100BB80003133008F6002E08F7002F08F8000A1271
:100BC8008A11A9260A128A11080083120313A301A5
:100BD800A401122E23087807A1007908A0000318A1
:100BE800A00AA31FF82DA003831203132008A20054
:100BF8002208FF00210884000A128A11D4260A124A
:100C08008A110A128A11D2230A128A110130831218
:100C18000313A3070318A40A0030A40723087807BE
:100C2800A1007908A0000318A00AA31F1C2EA00386
:100C3800831203132008A2002208FF002108840061
:100C48000A128A11D4260A128A11003A031D2D2E7F
:100C58002E2EEE2D0800F701F8017208730403190F
:100C6800362E372E6C2E0130F600432E013003103D
:100C7800F20DF30DFF3E031D3B2E0130F607F31F67
:100C8800462E472E3A2E01300310F70DF80DFF3E81
:100C9800031D482E73087502031D542E7208740232
:100CA800031C572E582E5F2E7208F4027308031C7B
:100CB800F503F502771401300310F30CF20CFF3E34
:100CC800031D602E0130F602031D6B2E6C2E472E7D
:100CD8007808F3007708F200080072087304031913
:100CE800762E772EA42E0130F600832E01300310C5
:100CF800F20DF30DFF3E031D7B2E0130F607F31FA7
:100D0800862E872E7A2E73087502031D8D2E720883
:100D18007402031C902E912E972E7208F402730809
:100D2800031CF503F50201300310F30CF20CFF3E2F
:100D3800031D982E0130F602031DA32EA42E872E24
:100D48007508F3007408F200080083120313AC015D
:100D5800AD01C62E2B08A900AA012908F2002A080D
:100D6800F3007708F4007808F5000A128A11322394
:100D78000A128A11013083120313AC070318AD0A53
:100D88000030AD072C087607A900290884008313D2
:100D98000008AB002B08031DD22ED32EAE2E080060
:100DA800FF1BDE2E83137F1883170008840A03199C
:100DB800FF0A080006308A000408840A8207003403
:100DC80025343034323475343A34253430343234BE
:100DD800753400345434693465346D3470346F3488
:100DE8003A3420340034303430343A343034303407
:100DF8000034F601F701721C022F032F092F740823
:100E0800F6070318F70A7508F70701300310F40D01
:100E1800F50DFF3E031D0A2F01300310F30CF20CF1
:100E2800FF3E031D112F72087304031D1C2F1D2F75
:100E3800FF2E7708F3007608F2000800513083127D
:100E48000313D6004F08D7000030D800D901DA01C3
:100E5800E001E1015730CA000030CB005008CC0057
:100E68005630CD000A128A1145270A128A118312B8
:100E7800031359084F07D5005508840083138001D0
:100E88000800831203134C08CE00572F4A08BE00EF
:100E98004B08BF004E30C0004D08C1000A128A112D
:100EA800CA210A128A11831203134E0884000A12F7
:100EB8008A11DE260A128A11003A031D642F652F53
:100EC8004A2FCA01CB010800831203130C1C6D2F93
:100ED8006E2F822F0C100130FB0704307B02031C9D
:100EE800762F772F7E2F0130E7070318E80A0030A6
:100EF800E807FB01BD308E0040308F0071088A0082
:100F0800700E8300FE0E7E0E09003130831203132B
:100F1800900040308F00BD308E00831603130C14F0
:100F28000B178B17080064008001840A0406031954
:100F380000340406982F073400341A342C343E3415
:020F480008009F
:04400E00F12FFF3F50
:00000001FF
