:100000000A128A110C280800FE00030EF0000A08EC
:10001000F1000A128A15932F0A128A110F288316EB
:1000200003130A128A151A270A128A11DF000A120C
:100030008A151B270A128A11E0000A128A151C274A
:100040000A128A11E1000A128A151D270A128A1162
:10005000E2000A128A151E270A128A11E30083138E
:10006000A0308400DF300A128A11F8270A128A11A0
:10007000FA01FB0183010A128A113E280A128A152D
:100080002D270A128A110A128A151F270A128A11AD
:1000900090308400831603135F0883178000840A5E
:1000A00060088000840A61088000840A6208800079
:1000B000840A630880002030840083160317100828
:1000C00083138000840A11088000840A12088000CB
:1000D000840A13088000840A140880000A128A1116
:1000E000F6220A128A1100300A128A114A260A12CE
:1000F0008A1101300A128A114A260A128A110A123A
:100100008A153B270A128A11730883160317960073
:1001100072089500003083120313A8000030A70076
:100120000330A600FF30A500831603171508F20060
:100130001608F300F401F5010030F9000030F80072
:10014000C330F7005030F6000A128A11F2260A1264
:100150008A11750883120313AC007408AB0073088E
:10016000AA007208A9000A128A1142240A128A11EE
:1001700083120313260883160317A00083120313A8
:100180002508831603179F001030F2002730F30074
:100190002008F5001F08F4000A128A113A270A12F3
:1001A0008A1173088316031798007208970010309D
:1001B000F2002730F3002008F5001F08F4000A12AF
:1001C0008A117C270A128A117308831603179A0072
:1001D0007208990008300A128A114A260A128A11F6
:1001E00000300A128A114A260A128A11CB30831271
:1001F0000313CF000B30D0008316031718088312A7
:100200000313D20083160317170883120313D100B8
:10021000831603171A0883120313D40083160317D7
:10022000190883120313D3000A128A1570270A12C1
:100230008A11CB30F8000A128A15B7270A128A11E0
:100240003C30F2000030F300831603132A08F50057
:100250002908F4000A128A113A270A128A1173082F
:10026000831603179C0072089B003C30F20000309C
:10027000F300831603132A08F5002908F4000A1274
:100280008A117C270A128A117308831603179E00AD
:1002900072089D00D53083120313CF000130D000C7
:1002A000831603171C0883120313D2008316031747
:1002B0001B0883120313D100831603171E08831231
:1002C0000313D400831603171D0883120313D300EE
:1002D0000A128A1570270A128A110C300A128A1122
:1002E0004A260A128A110B300A128A114A260A1269
:1002F0008A11D530F8000A128A15B7270A128A1116
:100300007F280A128A110C28F400741C8829892974
:100310009E2983160313200884008317211C83134E
:100320000130F20023080739013E98290310F20D2D
:10033000FF3E031D962972088004B3298316031318
:10034000200884008317211C83130130F200230846
:100350000739013EAD290310F20DFF3E031DAB2905
:100360007208FF3A8005F41CB629B729CD29200868
:1003700084008317211C83130130F200230CF30047
:10038000F30C730C0739013EC7290310F20DFF3E31
:10039000031DC52972088004E329200884008317FF
:1003A000211C83130130F200230CF300F30C730CB7
:1003B0000739013EDD290310F20DFF3E031DDB2945
:1003C0007208FF3A8005741DE629E729FA292008FA
:1003D00084008317211C83130130F200240807399D
:1003E000013EF4290310F20DFF3E031DF2297208AD
:1003F00080040D2A200884008317211C83130130F8
:10040000F20024080739013E072A0310F20DFF3ECF
:10041000031D052A7208FF3A8005F41D102A112ACF
:10042000272A200884008317211C83130130F2003F
:10043000240CF300F30C730C0739013E212A03103E
:10044000F20DFF3E031D1F2A720880043D2A20087A
:1004500084008317211C83130130F200240CF30065
:10046000F30C730C0739013E372A0310F20DFF3EDF
:10047000031D352A7208FF3A800508008312031312
:10048000400884008313000884000A128A11DF27C1
:100490000A128A11253A031D4E2A4F2ADC2A4008E7
:1004A00084000130800783160313A501A6010030E4
:1004B000FA00FF30A700FF30A80083120313C80121
:1004C000772AFA144008840001308007772A013027
:1004D000C800772A40088400000884000A128A11A4
:1004E000DF270A128A11303A0319612A672A48085D
:1004F00003197B2A7C2A6A2A4008F8004108F9007F
:100500000A128A11F3250A128A1179088316031335
:10051000A6007808A500A61F8E2A8F2A952A7A148D
:10052000A509A609A50A0319A60A83120313400800
:10053000840083130008C900490884000A128A1144
:10054000DF270A128A11753A031DA72AA82AD42A7E
:10055000410884000008C20002308007420884007D
:100560000008C400840A0008C50040088400490847
:10057000013E8000C92A3E08B5003F08B600450884
:10058000B8004408B7000A128A116D250A128A11B0
:10059000F52A490884000A128A11DF270A128A11F3
:1005A000753A0319BB2AD42A831203134008840026
:1005B000013083138007F52A400884000008840076
:1005C0000A128A11DF270A128A11C200C3014208E7
:1005D000F2004308F3003E08F4003F08F5000A1259
:1005E0008A11A2230A128A11D42A0800A03084009A
:1005F00083120313200883138000840A21088000DB
:10060000840A22088000840A23088000840A2408BF
:1006100080000030831603132106031D112B0530C3
:100620002006031D142B152B172B85012E2B0030B4
:100630002106031D1D2B06302006031D202B212B18
:10064000232B86012E2B00302106031D292B07307A
:100650002006031D2C2B2D2BA12B87011A30F9000E
:10066000F830F800F80B322BF90B322B0000033076
:100670000A128A114A260A128A110730F9007D30BF
:10068000F800F80B412BF90B412B03300A128A11A9
:100690004A260A128A111530F900C630F800F80B04
:1006A0004F2BF90B4F2B000003300A128A114A26F8
:1006B0000A128A1102300A128A114A260A128A1173
:1006C00002300A128A114A260A128A1108300A12C6
:1006D0008A114A260A128A1100300A128A114A2601
:1006E0000A128A1106300A128A114A260A128A113F
:1006F000083083120313A50025152508F8000430DF
:100700000310F80CFF3E031D802B78080F390A12E6
:100710008A114A260A128A118312031325080F39F7
:100720000A128A114A260A128A1100300A128A1104
:100730004A260A128A1101300A128A114A260A121E
:100740008A110800740875040319A72BA82BAE2B77
:1007500074087504031DAD2BAE2BB52B72080A125D
:100760008A1103200A128A11412C7408093E83124F
:100770000313A00075080318013E003EA1002008E5
:1007800084008317211C83130008A200840A000838
:10079000A300220823040319CE2BCF2B012C7408AD
:1007A000093EA00075080318013E003EA100200884
:1007B00084008317211C83130008A200840A000808
:1007C000A3007408023EA40075080318013E003E11
:1007D000A500240884008317251C83130008A600A5
:1007E000840A0008A7002708803AA8002308803A56
:1007F0002802031DFD2B220826020318002C012CC1
:10080000412C740884008317751C8313000883121D
:100810000313A000840A0008A1007408023EA2008D
:1008200075080318013E003EA300220884008317C8
:10083000231C831300082007A5002108A400031827
:10084000A40A801F242CA403831203132408A600E7
:10085000250884008317261C8313720880007408FF
:10086000023EA00075080318013E003EA1002008CA
:1008700084008317211C831301308007840A031826
:10088000800A080083120313AF01A81F482C492CCB
:10089000562CA509A609A709A809A50A0319A60A9D
:1008A0000319A70A0319A80A0130AF00AC1F592C7D
:1008B0005A2C672CA909AA09AB09AC09A90A031982
:1008C000AA0A0319AB0A0319AC0A0130AF060030BB
:1008D000B3000030B2000030B1000030B000280892
:1008E0002704260425040319762C772CC22C01300A
:1008F000AE00852C0130AD000310A50DA60DA70D8F
:10090000A80DAD0B7C2C0130AE07A81F882C892CBC
:100910007A2C0130AD000310B00DB10DB20DB30D46
:10092000AD0B8B2C28082C02031DA02C27082B02B2
:10093000031DA02C26082A02031DA02C250829022D
:10094000031CA32CA42CB32C2508A9022608031CE5
:10095000260FAA022708031C270FAB022808031C36
:10096000280FAC02301401300310A80CA70CA60C01
:10097000A50CFF3E031DB42C0130AE02031DC12C9B
:10098000C22C892C2F080319C62CC72CD22CB009D5
:10099000B109B209B309B00A0319B10A0319B20ABD
:1009A0000319B30A3308A8003208A7003108A600CB
:1009B0003008A5000800F700831603132008840000
:1009C0008317211C83130130F50022080739013EEB
:1009D000EB2C0310F50DFF3E031DE92C7508800478
:1009E0007708F50004300310F50CFF3E031DF32CCF
:1009F00075080F390A128A1184210A128A11831686
:100A00000313200884008317211C83130130F50091
:100A1000220CF600F60C760C0739013E112D03105E
:100A2000F50DFF3E031D0F2D750880040D30F500F8
:100A3000F50B182D83160313200884008317211C3F
:100A400083130130F500220CF600F60C760C073902
:100A5000013E2C2D0310F50DFF3E031D2A2D7508B8
:100A6000FF3A800577080F390A128A1184210A1289
:100A70008A1183160313200884008317211C831313
:100A80000130F500220CF600F60C760C0739013E19
:100A90004B2D0310F50DFF3E031D492D75088004F5
:100AA0000D30F500F50B522D83160313200884003A
:100AB0008317211C83130130F500220CF600F60C7D
:100AC000760C0739013E662D0310F50DFF3E031D20
:100AD000642D7508FF3A8005080001308312031366
:100AE000B90083160313260883120313BB00831671
:100AF0000313250883120313BA001F30BC00003013
:100B0000BD0083160313CA01BD2DFF3083120313EA
:100B1000BC070318BD0AFF30BD073C08AB3E84008C
:100B20000A30F2000030F3003808F5003708F4000E
:100B30000A128A117C270A128A117208303E831326
:100B4000800083120313B901FF30BA070318BB0AF0
:100B5000FF30BB070A30F2000030F3003808F50020
:100B60003708F4000A128A113A270A128A11730808
:100B700083120313B8007208B70083123C083D04C7
:100B80000319C32DC42DE02D37083804031DC92DCA
:100B9000CA2D852D3908031DCE2DCF2D852D3B085F
:100BA000803AFF0080307F02031DD82D01303A02C9
:100BB000031CDB2DDC2DE02DFA18DF2DE02D852D1B
:100BC000831203133508AE003608AF003C08AB3E75
:100BD000B0003B08B2003A08B1000A128A119F2601
:100BE0000A128A11080083120313A201A3017808D4
:100BF00084008313000884000A128A11DF270A1276
:100C00008A112A3A031D052E062E342E78088400F8
:100C100001308007790884000008A00002308007B6
:100C2000200884000008A200840A0008A300452EC2
:100C30002308F3002208F2000A30F4000030F50027
:100C40000A128A15DB270A128A118312031321085C
:100C50007207A2000030031801307307A300780860
:100C60008400013083138007780884000008840022
:100C70000A128A11DF270A128A11D03EA1000A3017
:100C80002102031C442E452E182E2308F9002208A9
:100C9000F8000800F7008316031320088400831768
:100CA000211C83130130F50022080739013E5A2E1A
:100CB0000310F50DFF3E031D582E7508FF3A800501
:100CC00077080A128A1184210A128A1183160313E3
:100CD000200884008317211C83130130F500220CA7
:100CE000F600F60C760C0739013E782E0310F50D50
:100CF000FF3E031D762E750880040630F600303066
:100D0000F500F50B812EF60B812E000083160313E0
:100D1000200884008317211C83130130F500220C66
:100D2000F600F60C760C0739013E982E0310F50DEF
:100D3000FF3E031D962E7508FF3A800508007A1CB9
:100D4000A22EA32EB02E831203133008F6002E0815
:100D5000F7002F08F8000A128A11B4270A128A1124
:100D600083120313B21FB52EB62EB82EB101B201F5
:100D7000B301B401D22E2030F2000030F300831210
:100D800003132E08F4002F08F5000A128A11A2237B
:100D90000A128A11013083120313B3070318B40A2D
:100DA0000030B4073408803AF9003208803A7902FA
:100DB000031DDC2E31083302031CDF2EE02EBB2E78
:100DC0007A18E32EE42EF12E831203133008F60076
:100DD0002E08F7002F08F8000A128A11B4270A1209
:100DE0008A110800003083120313A4000030A3000E
:100DF0000030A2000030A100721CFF2E002F172F20
:100E00007608A107770803110318013E0319092F7B
:100E1000A207780803110318013E0319102FA30736
:100E2000790803110318013E0319172FA407013095
:100E3000A0000310F60DF70DF80DF90DA00B192FFA
:100E400001300310F50CF40CF30CF20CFF3E031D03
:100E5000212F7508740473047204031D302F312F81
:100E6000FC2E2408F5002308F4002208F3002108D2
:100E7000F2000800F701F801720873040319412F0A
:100E8000422F772F0130F6004E2F01300310F20D64
:100E9000F30DFF3E031D462F0130F607F31F512FC0
:100EA000522F452F01300310F70DF80DFF3E031DA3
:100EB000532F73087502031D5F2F72087402031C01
:100EC000622F632F6A2F7208F4027308031CF50364
:100ED000F502771401300310F30CF20CFF3E031DF2
:100EE0006B2F0130F602031D762F772F522F7808D3
:100EF000F3007708F2000800720873040319812FC9
:100F0000822FAF2F0130F6008E2F01300310F20D2B
:100F1000F30DFF3E031D862F0130F607F31F912FBF
:100F2000922F852F73087502031D982F7208740283
:100F3000031C9B2F9C2FA22F7208F4027308031C22
:100F4000F503F50201300310F30CF20CFF3E031D14
:100F5000A32F0130F602031DAE2FAF2F922F75087D
:100F6000F3007408F200080083120313AC01AD0112
:100F7000D12F2B08A900AA012908F2002A08F300A2
:100F80007708F4007808F5000A128A11A2230A12E1
:100F90008A11013083120313AC070318AD0A003025
:100FA000AD072C087607A9002908840083130008E0
:100FB000AB002B08031DDD2FDE2FB92F08000730F3
:100FC0008A000408840A820700342534303432341D
:100FD00075343A34253430343234753400342534A1
:100FE00075342E342534303434347534563400346A
:100FF00064008001840A0406031900340406F92FF2
:101E3400073400341A342C343E340130831603172B
:101E4400880089018130831203139F008030831638
:101E540003139F00080031308312031390004030B5
:101E64008F00BD308E00831603130C140B178B17D1
:101E740008000330F400F40B3D2F831203139F1466
:101E84009F18452F462F422F1E08F3008316031375
:101E94001E08F2000800831203134C08CE005F2FC3
:101EA4004A08BE004B08BF004E30C0004D08C100B8
:101EB4000A128A113E220A128A15831203134E084B
:101EC40084000A128A11DF270A128A15003A031DB8
:101ED4006C2F6D2F522FCA01CB0108005130831291
:101EE4000313D6004F08D7000030D800D901DA0117
:101EF400E001E1015730CA000030CB005008CC00AB
:101F04005630CD000A128A154D270A128A158312FB
:101F1400031359084F07D500550884008313800123
:101F24000800831203130C1C982F992FB02F0C1048
:101F34000130FB0704307B02031CA12FA22FAB2F1F
:101F4400013083160313A9070318AA0A0030AA074D
:101F5400FB01BD3083128E0040308F0071088A006F
:101F6400700E8300FE0E7E0E090083120313A0017F
:101F7400A101CF2F20087807F90079088400000810
:101F84000A128A11DB240A128A1501308312031300
:101F9400A0070318A10A0030A10720087807F90058
:101FA4007908840083130008031DD92FDA2FBC2F6E
:101FB4000800F601F701721CE02FE12FE72F7408E7
:101FC400F6070318F70A7508F70701300310F40D34
:101FD400F50DFF3E031DE82F01300310F30CF20C46
:101FE400FF3E031DEF2F72087304031DFA2FFB2F0E
:0C1FF400DD2F7708F3007608F2000800EB
:04400E00F12FFF3F50
:00000001FF
