:060000000A128A11FC2F18
:100EC8008130831203139F008030831603139F0021
:100ED800013083160317880089018316031305144C
:100EE8000800831603130715FF3092000C30831295
:100EF8000313970095018C10053092008C1C852FE8
:100F0800862F822F8316031307110800F300730836
:100F18000F39F20002300310F20DFF3E031D8F2F30
:100F2800831203131F08C33972049F004230F20072
:100F3800F20B9C2F0000831203139F149F18A52FF8
:100F4800A62FA22F1E08F100831603131E08F00017
:100F580008000A128A1164270A128A110A128A11D1
:100F680075270A128A1100300A128A118A270A1272
:100F78008A117108F5007008F4000A128A11D32743
:100F88000A128A113430F900F130F800F80BCA2F30
:100F9800F90BCA2FCF2FB72F0A128A110028043055
:100FA8007502003003197402031CDB2FDC2FE02FBD
:100FB800FF30F4000330F5007508F7007408F600F8
:100FC8000310F70CF60C0310F70CF60C76088312D6
:100FD8000313950074080339F60004300310F60D66
:100FE800FF3E031DF22F1708CF397604970008003B
:080FF80083010A128A11AD2FDA
:04400E00F22FFF3F4F
:00000001FF
