:060000000A128A11FC2F18
:100E10008130831203139F008030831603139F00D9
:100E20000130831603178800890183160313051404
:100E30000800831603130715FF3092000C3083124D
:100E40000313970095018C10053092008C1C292FFC
:100E50002A2F262F83160313071108008316031366
:100E6000871183120313871183160313071283124A
:100E7000031307128316031306148614831603172D
:100E80008901831603138113033095000800F300D2
:100E900073080F39F20002300310F20DFF3E031DFC
:100EA0004C2F831203131F08C33972049F00423072
:100EB000F200F20B592F0000831203139F149F18A6
:100EC000622F632F5F2F1E08F100831603131E0885
:100ED000F000080004307102003003197002031C96
:100EE000722F732F772FFF30F0000330F10071085D
:100EF000F3007008F2000310F30CF20C0310F30C73
:100F0000F20C720883120313950070080339F20083
:100F100004300310F20DFF3E031D892F1708CF394F
:100F20007204970008000A128A1108270A128A110F
:100F30000A128A1119270A128A110A128A112E27F7
:100F40000A128A11831203138715071200300A123E
:100F50008A1147270A128A117108F7007008F600F3
:100F600000307702C830031976020318B82FB92F62
:100F7000BD2FC830F6000030F7007708F100760882
:100F8000F0000A128A116A270A128A1103108312CA
:100F90000313061C0314003003180130F80003107B
:100FA000861C0314003003180130F9007808031977
:100FB000DA2FDB2FE32F7908031DDF2FE02FE32F3C
:100FC00087150712EF2F7808031DE72FE82FEF2F63
:100FD00079080319EC2FED2FEF2F87110716343006
:100FE000F500F130F400F40BF32FF50BF32FF82F8D
:100FF000A62F0A128A11002883010A128A11932F40
:04400E00F22FFF3F4F
:00000001FF
