:060000000A128A11C02F54
:100EF800FC346034DA34F2346634B634BE34E03468
:100F0800FE34F6347E088A007F0882000A128A11AD
:100F180086270A128A118000840A04087D060319AC
:100F28000034FF0A0319FE0A8A2F83160313880167
:100F3800831203138801FD017D08703E84000009B7
:100F48008312031388000630FC001330FB00AD3019
:100F5800FA00FA0BAD2FFB0BAD2FFC0BAD2FB42F06
:100F68000130FD070A307D02031CBB2FBC2FA02FC8
:100F78009F2F0A128A1100280A128A117C270A1246
:100F88008A11F0000A128A117D270A128A11F100CB
:100F98000A128A117E270A128A11F2000A128A118D
:100FA8007F270A128A11F3000A128A1180270A126F
:100FB8008A11F4000A128A1181270A128A11F5008F
:100FC8000A128A1182270A128A11F6000A128A1155
:100FD80083270A128A11F7000A128A1184270A1233
:100FE8008A11F8000A128A1185270A128A11F90053
:080FF80083010A128A11992FEE
:04400E00F12FFF3F50
:00000001FF
