:060000000A128A11EE2F26
:100C8800FC346034DA34F2346634B634BE34E034DA
:100C9800FE34F6347E088A007F0882000A128A1120
:100CA8004E260A128A118000840A04087D06031958
:100CB8000034FF0A0319FE0A522EF501F31F652EB0
:100CC800662E6D2EF209F309F20A0319F30A0130B0
:100CD800F500F11F702E712E762EF009F109F00A39
:100CE8000319F10A7008710403197B2E7C2EA92EB2
:100CF8000130F400882E01300310F00DF10DFF3E95
:100D0800031D802E0130F407F11F8B2E8C2E7F2EB1
:100D180071087302031D922E70087202031C952E2F
:100D2800962E9C2E7008F2027108031CF303F3023E
:100D380001300310F10CF00CFF3E031D9D2E013015
:100D4800F402031DA82EA92E8C2E75080319AD2EAA
:100D5800AE2EB32EF209F309F20A0319F30A730847
:100D6800F1007208F0000800F501F11FBC2EBD2E3D
:100D7800C42EF009F109F00A0319F10A0130F5004F
:100D8800F31FC72EC82ECF2EF209F309F20A031952
:100D9800F30A0130F506F601F7017008710403192A
:100DA800D62ED72E0C2F0130F400E32E013003107D
:100DB800F00DF10DFF3E031DDB2E0130F407F11F8E
:100DC800E62EE72EDA2E01300310F60DF70DFF3E62
:100DD800031DE82E71087302031DF42E70087202B9
:100DE800031CF72EF82EFF2E7008F2027108031C60
:100DF800F303F302761401300310F10CF00CFF3EFC
:100E0800031D002F0130F402031D0B2F0C2FE72EBA
:100E180075080319102F112F162FF609F709F60A6E
:100E28000319F70A7708F1007608F000080083161E
:100E38000317880189018316031301087F3981008C
:100E4800FF30860087018801FF3083120313870073
:100E5800FF308800AB010130AA000130A400013046
:100E6800A5000130A6008312031306080139A70064
:100E7800060C0139A800060CF800780C0139A90005
:100E88002908031D482F492F662F2603031D4D2FC0
:100E98004E2F662F2A030319522F532F582F013034
:100EA800A0000030A1005C2F0230A0000030A1009B
:100EB8002008AA004E30F900EB30F800F80B622F3A
:100EC800F90B622F831203132708031D6C2F6D2F54
:100ED800852F2403031D712F722F852F2A08AB0736
:100EE80064302B02031C792F7A2F7D2F2B089C3E10
:100EF800AB004E30F900EB30F800F80B812FF90BFE
:100F0800812F831203132808031D8B2F8C2FA62FE4
:100F18002503031D902F912FA62F2A082B02031CAF
:100F2800962F972F9A2F2A08AB029E2F2A082B025A
:100F3800643EAB004E30F900EB30F800F80BA22FFE
:100F4800F90BA22F831203132708A4002808A50071
:100F58002908A6000A30F0000030F1002B08F8003C
:100F6800F9017808F2007908F3000A128A11B82604
:100F78000A128A11700883120313A2000A30F000C3
:100F88000030F1002B08F800F9017808F200790820
:100F9800F3000A128A1161260A128A117008831254
:100FA8000313A30022082C3E840083130009870042
:100FB80023082C3E8400000988000D30F900FB301E
:100FC800F800F80BE52FF90BE52FEA2F372F0A1257
:100FD8008A11002883133630FD000630FE004430A5
:100FE800FF002C3084000A128A1152260A128A1134
:080FF80083010A128A111B2F6C
:04400E00F22FFF3F4F
:00000001FF
