:060000000A128A11FC2F18
:100D7A00F000831203130C1EC32EC42EBE2E70085D
:100D8A009900080001308316031788008901831629
:100D9A000313051480309F008130831203139F00D0
:100DAA000800831603130717871767309900181569
:100DBA001812831203139817831603139816080040
:100DCA000630F200F20BE72E0000831203139F1481
:100DDA009F18F02EF12EED2E1E08F1008316031334
:100DEA001E08F00008000030FC000030FB00003054
:100DFA00FA000030F900701C032F042F1B2F74080F
:100E0A00F907750803110318013E03190D2FFA0794
:100E1A00760803110318013E0319142FFB077708FC
:100E2A0003110318013E03191B2FFC070130F800B8
:100E3A000310F40DF50DF60DF70DF80B1D2F01300B
:100E4A000310F30CF20CF10CF00CFF3E031D252FDE
:100E5A007308720471047004031D342F352F002F98
:100E6A007C08F3007B08F2007A08F1007908F000A8
:100E7A0008000A128A11D6260A128A110A128A113F
:100E8A00C7260A128A110A128A11E5260A128A113B
:100E9A00710883120313B0007008AF000030A3007A
:100EAA000030A2000330A100FF30A0002F08F0009C
:100EBA003008F100F201F3010030F7000030F600CB
:100ECA000030F500B430F4000A128A11F8260A122A
:100EDA008A11730883120313A7007208A600710807
:100EEA00A5007008A4000A128A1196270A128A110C
:100EFA00831203132008B10031080A128A11BD2691
:100F0A000A128A11683083120313AE00E330AD006F
:100F1A00AD0B8D2FAE0B8D2F922F482F0A128A11EF
:100F2A000028003083120313AB000030AA000030FF
:100F3A00A9000030A8002308220421042004031970
:100F4A00A72FA82FF32F0130AC00B62F0130FD00D8
:100F5A000310A00DA10DA20DA30DFD0BAD2F0130A5
:100F6A00AC07A31FB92FBA2FAB2F0130FD00031016
:100F7A00A80DA90DAA0DAB0DFD0BBC2F2308270246
:100F8A00031DD12F22082602031DD12F2108250275
:100F9A00031DD12F20082402031CD42FD52FE42FA0
:100FAA002008A4022108031C210FA5022208031C01
:100FBA00220FA6022308031C230FA70228140130BC
:100FCA000310A30CA20CA10CA00CFF3E031DE52FDD
:100FDA000130AC02031DF22FF32FBA2F2B08A30006
:100FEA002A08A2002908A1002808A00008008301F5
:060FFA000A128A113E2FCD
:04400E00F22FFF3F4F
:00000001FF
