:060000000A128A11FC2F18
:100D0E008316031307178717333099001815181217
:100D1E00831203139817181608008312031308146E
:100D2E007908F1007808F0000A128A11B5260A1225
:100D3E008A118312031308102030FA004E30FB0084
:100D4E0078087A02F0007908031C790A7B02F10018
:100D5E000A128A11B5260A128A1108007108F300C8
:100D6E007008F2000310F30CF20C7208F400730812
:100D7E00F500F201F30174087202F6007508031C07
:100D8E00750A7302F7002030831203139000770860
:100D9E008F0076088E000C1010140C1CD72ED82E37
:100DAE00D42E101008000030FC000030FB00003084
:100DBE00FA000030F900701CE52EE62EFD2E7408A8
:100DCE00F907750803110318013E0319EF2EFA07F0
:100DDE00760803110318013E0319F62EFB07770858
:100DEE0003110318013E0319FD2EFC070130F80014
:100DFE000310F40DF50DF60DF70DF80BFF2E013067
:100E0E000310F30CF20CF10CF00CFF3E031D072F38
:100E1E007308720471047004031D162F172FE22E2F
:100E2E007C08F3007B08F2007A08F1007908F000E4
:100E3E000800003083120313AB000030AA0000300C
:100E4E00A9000030A800230822042104200403195D
:100E5E00312F322F7D2F0130AC00402F0130FD009D
:100E6E000310A00DA10DA20DA30DFD0B372F013008
:100E7E00AC07A31F432F442F352F0130FD00031065
:100E8E00A80DA90DAA0DAB0DFD0B462F23082702A9
:100E9E00031D5B2F22082602031D5B2F210825024E
:100EAE00031D5B2F20082402031C5E2F5F2F6E2F65
:100EBE002008A4022108031C210FA5022208031CEE
:100ECE00220FA6022308031C230FA70228140130A9
:100EDE000310A30CA20CA10CA00CFF3E031D6F2F40
:100EEE000130AC02031D7C2F7D2F442F2B08A30055
:100EFE002A08A2002908A1002808A00008008312D1
:100F0E000313B4018316031388018312031308100D
:100F1E000A128A1187260A128A1183120313981C49
:100F2E00992F9A2FB02F18121816B02F00301819AB
:100F3E000130B3001A08B5003308031DA72FA82FE0
:100F4E00B02FB53035020318AD2FAE2FB02F3508A8
:100F5E00B4008C1AB32FB42F9D2F0030A300003095
:100F6E00A2000030A100B430A0003408AD00AE01E4
:100F7E00AF01B0013008F3002F08F2002E08F10087
:100F8E002D08F0000030F7000030F6000730F500B5
:100F9E00D030F4000A128A11DA260A128A11730866
:100FAE0083120313A7007208A6007108A50070082B
:100FBE00A4000A128A1120270A128A11831203131F
:100FCE002008F43EB10021080318013E013EB20094
:100FDE003208F9003108F8000A128A1194260A1212
:100FEE008A11942F0A128A11002883010A128A117B
:020FFE00862F3C
:04400E00F22FFF3F4F
:00000001FF
