:100000000A128A11D92F00308A000408840A820754
:1000100000345434653463346C3461343A342034FD
:020020000034AA
:1006E600073400341A342C343E3483120313860143
:1006F600F0308316031386008316031789017F30B3
:1007060083160313810508006E30F200902B0A123F
:100716008A1175260A128A11F2006E3072060319C2
:10072600952B962B8A2B72080800F701F801AE2B41
:100736007708760784000A128A1103200A128A11A2
:100746000A128A117D240A128A110130F70703184A
:10075600F80A0030F8077708760784000A128A112B
:1007660003200A128A11003A031DBA2BBB2B9B2BBE
:100776000800F50083120313260884008317271C3C
:1007860083130130F30028080739013ECC2B0310F0
:10079600F30DFF3E031DCA2B7308FF3A800575084B
:1007A6000A128A11BB250A128A118312031326081C
:1007B60084008317271C83130130F300280CF400F0
:1007C600F40C740C0739013EEA2B0310F30DFF3EBF
:1007D600031DE82B730880040630F4003030F30064
:1007E600F30BF32BF40BF32B0000831203132608F1
:1007F60084008317271C83130130F300280CF400B0
:10080600F40C740C0739013E0A2C0310F30DFF3E5D
:10081600031D082C7308FF3A800508000A128A1186
:1008260078230A128A1120308400831203132B08BE
:1008360083138000840A2C088000840A2D08800017
:10084600840A2E088000840A2F08800076308400EF
:1008560020088000840A21088000840A220880007B
:10086600840A23088000840A240880000A128A1158
:100876000F250A128A1100300A128A11BC230A12A5
:100886008A1101300A128A11BC230A128A11083011
:100896000A128A11BC230A128A1100300A128A111E
:1008A600BC230A128A110130F6000A128A11982313
:1008B6000A128A110A128A1187230A128A118312CE
:1008C6000313A50008300A128A11BC230A128A11E2
:1008D60007300A128A11BC230A128A1183120313E3
:1008E60025080A128A117D240A128A115D2C0A1221
:1008F6008A110028F5008312031326088400831743
:10090600271C83130130F30028080739013E8D2C7C
:100916000310F30DFF3E031D8B2C7308800475082E
:10092600F30004300310F30CFF3E031D952C7308EF
:100936000F390A128A11BB250A128A118312031370
:10094600260884008317271C83130130F300280C24
:10095600F400F40C740C0739013EB32C0310F30DAC
:10096600FF3E031DB12C730880040D30F300F30B1A
:10097600BA2C83120313260884008317271C8313BB
:100986000130F300280CF400F40C740C0739013E16
:10099600CE2C0310F30DFF3E031DCC2C7308FF3A3B
:1009A600800575080F390A128A11BB250A128A11A9
:1009B60083120313260884008317271C8313013030
:1009C600F300280CF400F40C740C0739013EED2CEE
:1009D6000310F30DFF3E031DEB2C730880040D304E
:1009E600F300F30BF42C83120313260884008317F9
:1009F600271C83130130F300280CF400F40C740C4C
:100A06000739013E082D0310F30DFF3E031D062D89
:100A16007308FF3A800508002630840076088313A1
:100A26008000840A77088000840A78088000840A97
:100A360079088000840A7A08800000308312031344
:100A46002706031D282D05302606031D2B2D2C2DCC
:100A5600302D8316031385014B2D00302706031D09
:100A6600362D06302606031D392D3A2D3E2D8316CA
:100A7600031386014B2D00302706031D442D073036
:100A86002606031D472D482DBA2D8316031387010D
:100A96001A30FC00F830FB00FB0B4F2DFC0B4F2DE2
:100AA600000003300A128A11BC230A128A11073089
:100AB600FC007D30FB00FB0B5E2DFC0B5E2D033036
:100AC6000A128A11BC230A128A111530FC00C6309C
:100AD600FB00FB0B6C2DFC0B6C2D000003300A1287
:100AE6008A11BC230A128A1102300A128A11BC2307
:100AF6000A128A1102300A128A11BC230A128A11BA
:100B060008300A128A11BC230A128A1100300A120E
:100B16008A11BC230A128A1106300A128A11BC23D2
:100B26000A128A110830FD007D157D08FB0004308D
:100B36000310FB0CFF3E031D9B2D7B080F390A1289
:100B46008A11BC230A128A117D080F390A128A11EA
:100B5600BC230A128A1100300A128A11BC230A1217
:100B66008A1101300A128A11BC230A128A1108005E
:100B7600F200721CBF2DC02DD52D8312031326083B
:100B860084008317271C83130130F00029080739D6
:100B9600013ECF2D0310F00DFF3E031DCD2D700835
:100BA6008004EA2D83120313260884008317271C6A
:100BB60083130130F00029080739013EE42D0310A4
:100BC600F00DFF3E031DE22D7008FF3A8005F21C72
:100BD600ED2DEE2D042E260884008317271C831383
:100BE6000130F000290CF100F10C710C0739013EBF
:100BF600FE2D0310F00DFF3E031DFC2D7008800432
:100C06001A2E260884008317271C83130130F00050
:100C1600290CF100F10C710C0739013E142E03105A
:100C2600F00DFF3E031D122E7008FF3A8005721D5F
:100C36001D2E1E2E312E260884008317271C831393
:100C46000130F0002A080739013E2B2E0310F00D63
:100C5600FF3E031D292E70088004442E26088400BA
:100C66008317271C83130130F0002A080739013E39
:100C76003E2E0310F00DFF3E031D3C2E7008FF3A7A
:100C86008005F21D472E482E5E2E26088400831707
:100C9600271C83130130F0002A0CF100F10C710CB3
:100CA6000739013E582E0310F00DFF3E031D562E48
:100CB60070088004742E260884008317271C83136B
:100CC6000130F0002A0CF100F10C710C0739013EDD
:100CD6006E2E0310F00DFF3E031D6C2E7008FF3ABA
:100CE6008005080083120313061086140615861560
:100CF600061A7E2E7F2E902E8230F100DD30F00017
:100D0600F00B832EF10B832E882E83120313061EFF
:100D16008D2E8E2E882E3130D82F861A932E942E15
:100D2600A52E8230F100DD30F000F00B982EF10B8D
:100D3600982E9D2E83120313861EA22EA32E9D2E61
:100D46003230D82F061BA82EA92EBA2E8230F100DB
:100D5600DD30F000F00BAD2EF10BAD2EB22E83126E
:100D66000313061FB72EB82EB22E3330D82F861B8C
:100D7600BD2EBE2ECF2E8230F100DD30F000F00BFE
:100D8600C22EF10BC22EC72E83120313861FCC2E42
:100D9600CD2EC72E4130D82F06148610061586157F
:100DA600061AD62ED72EE82E8230F100DD30F0005E
:100DB600F00BDB2EF10BDB2EE02E83120313061E47
:100DC600E52EE62EE02E3430D82F861AEB2EEC2EAA
:100DD600FD2E8230F100DD30F000F00BF02EF10B2D
:100DE600F02EF52E83120313861EFA2EFB2EF52EF9
:100DF6003530D82F061B002F012F122F8230F1001D
:100E0600DD30F000F00B052FF10B052F0A2F8312B2
:100E16000313061F0F2F102F0A2F3630D82F861BCD
:100E2600152F162F272F8230F100DD30F000F00B42
:100E36001A2FF10B1A2F1F2F83120313861F242F2D
:100E4600252F1F2F4230D82F06148614061186151B
:100E5600061A2E2F2F2F402F8230F100DD30F000A2
:100E6600F00B332FF10B332F382F83120313061E8B
:100E76003D2F3E2F382F3730D82F861A432F442F39
:100E8600552F8230F100DD30F000F00B482FF10BCA
:100E9600482F4D2F83120313861E522F532F4D2F8B
:100EA6003830D82F061B582F592F6A2F8230F10061
:100EB600DD30F000F00B5D2FF10B5D2F622F8312FA
:100EC6000313061F672F682F622F3930D82F861B12
:100ED6006D2F6E2F7F2F8230F100DD30F000F00B8A
:100EE600722FF10B722F772F83120313861F7C2F1D
:100EF6007D2F772F4330D82F0614861406158611BA
:100F0600061A862F872F982F8230F100DD30F000E9
:100F1600F00B8B2FF10B8B2F902F83120313061ED2
:100F2600952F962F902F2A30D82F861A9B2F9C2FDD
:100F3600AD2F8230F100DD30F000F00BA02FF10B69
:100F4600A02FA52F83120313861EAA2FAB2FA52F22
:100F56003030D82F061BB02FB12FC22F8230F100B0
:100F6600DD30F000F00BB52FF10BB52FBA2F831241
:100F76000313061FBF2FC02FBA2F2330D82F861B6F
:100F8600C52FC62FD72F8230F100DD30F000F00BD1
:100F9600CA2FF10BCA2FCF2F83120313861FD42F0C
:100FA600D52FCF2F4430D82F6E3008000A128A1161
:100FB60073230A128A11AB000A128A1174230A12C9
:100FC6008A11AC000A128A1175230A128A11AD0021
:100FD6000A128A1176230A128A11AE000A128A119F
:100FE60077230A128A11AF00A601A701A801A90159
:0A0FF600AA0183010A128A11112CCE
:04400E00F12FFF3F50
:00000001FF
