:060000000A128A110C280F
:10000800FE00030EF0000A08F1000A128A11682E99
:100018000A128A110F2883133D30FD000630FE00B6
:100028002A30FF00203084000A128A114B260A1257
:100038008A11D801D901DA01DB01DC01DD01DE0119
:10004800FB0183010A128A1129280A128A115A26E9
:100058000A128A11FF3083160313860001087F39BC
:1000680081008B170B16011345308400831203138C
:10007800200883138000840A21088000840A22084B
:100088008000840A23088000840A240880003D3008
:10009800840045088000840A46088000840A4708CE
:1000A8008000840A48088000840A490880000A12EF
:1000B8008A11C7230A128A113530F80000300A1253
:1000C8008A1105250A128A112D30F80001300A120A
:1000D8008A1105250A128A112530F80002300A1201
:1000E8008A1105250A128A1100300A128A11FF2581
:1000F8000A128A11730883120313D5007208D400F8
:10010800D601D70101305502903003195402031863
:100118008E288F28AB286430F2000030F30090302E
:10012800C2000130C30054084202F4005508031C01
:10013800550A4302F5000A128A11BD250A128A11CE
:10014800720983120313D6007309D700CF2802302F
:100158005502593003195402031CB328B428CF2878
:100168006430F2000030F3005408A83EF40055084B
:100178000318013EFD3EF5000A128A11BD250A1238
:100188008A117208013E83120313D60073080318FC
:10019800013E003ED70001300A128A11FF250A12DB
:1001A8008A11730883120313D1007208D000023039
:1001B8005102593003195002031CE328E428E628A9
:1001C800DE01F12801305102903003195002031862
:1001D800EE28EF28F1280130DE00560857040319ED
:1001E800F628F7283B295708803AFF0080307F021D
:1001F800031D0029013056020318032904290B297D
:10020800FF3083120313CA00FF30CB0011290130DD
:1002180083120313CA000030CB004A08CE005D08E1
:100228004E07D200D3010318D30ACE1F1C29D303CB
:10023800831203135308803AFF0080307F02031DA6
:10024800272910305202031C2A292B292F2983120F
:100258000313D201D30183120313D31F3429352981
:1002680039290F30D2000030D3005208DD000030A9
:100278000A128A1168250A128A1101300A128A1193
:1002880068250A128A11831203135E08031D4D297B
:100298004E2969295D08803EC20004300310C20C53
:1002A800FF3E031D522942080F390A128A11682598
:1002B8000A128A11831203135D08803E0F390A124D
:1002C8008A1168250A128A11CA295E03031D6D293D
:1002D8006E2989295D08C03EC20004300310C20C93
:1002E800FF3E031D722942080F390A128A11682538
:1002F8000A128A11831203135D08C03E0F390A12CD
:100308008A1168250A128A11CA2902305E06031D5D
:100318008E298F29AA295D08943EC2000430031053
:10032800C20CFF3E031D932942080F390A128A1195
:1003380068250A128A11831203135D08943E0F3947
:100348000A128A1168250A128A11CA2903305E0620
:10035800031DAF29B029CA295D08D43EC200043064
:100368000310C20CFF3E031DB42942080F390A12BC
:100378008A1168250A128A11831203135D08D43E74
:100388000F390A128A1168250A128A117B08031983
:10039800CE29CF298A2A01300A128A1173240A1217
:1003A8008A11053083120313C4000F30C300F030E4
:1003B800C200C20BDD29C30BDD29C40BDD290000F7
:1003C80000300A128A1168250A128A1101300A12AD
:1003D8008A1168250A128A11831203135E08031D05
:1003E800F629F729122A5D08803EC200043003105E
:1003F800C20CFF3E031DFB2942080F390A128A115D
:1004080068250A128A11831203135D08803E0F398A
:100418000A128A1168250A128A11732A5E03031DBB
:10042800162A172A322A5D08C03EC200043003107B
:10043800C20CFF3E031D1B2A42080F390A128A11FB
:1004480068250A128A11831203135D08C03E0F390A
:100458000A128A1168250A128A11732A02305E0666
:10046800031D372A382A532A5D08943EC2000430F7
:100478000310C20CFF3E031D3C2A42080F390A1222
:100488008A1168250A128A11831203135D08943EA3
:100498000F390A128A1168250A128A11732A033041
:1004A8005E06031D582A592A732A5D08D43EC200E5
:1004B80004300310C20CFF3E031D5D2A42080F39A9
:1004C8000A128A1168250A128A11831203135D0819
:1004D800D43E0F390A128A1168250A128A1102308D
:1004E8000A128A1173240A128A110530831203131F
:1004F800C4000F30C300F030C200C20B812AC30B06
:10050800812AC40B812A0000FB01902A00300A12BC
:100518008A1173240A128A1183120313D71B952A8E
:10052800962A9B2A5708CD005608CC00A62A5609B9
:10053800C2005709C300C20A0319C30A4208CC0003
:100548004308CD004C08CF00EC2A02308312031375
:10055800C4003830C300AC30C200C20BB12AC30B90
:10056800B12AC40BB12A0000FA2A023083120313FD
:10057800C4000430C300B930C200C20BC12AC30B87
:10058800C12AC40BC12AC82AFA2AC330831203130A
:10059800C300CC30C200C20BCF2AC30BCF2A000045
:1005A800FA2A683083120313C300E330C200C20B77
:1005B800DB2AC30BDB2AE02AFA2A3430831203131E
:1005C800C300F130C200C20BE72AC30BE72AFA2A9C
:1005D8004F08003A0319A92A013A0319B92A033A1C
:1005E8000319C92A013A0319D52AE12A02308312CC
:1005F8000313C4000430C300B930C200C20B022B7D
:10060800C30B022BC40B022B092B78280A128A1160
:100618000C28F400741C112B122B272B83120313A4
:10062800580884008317591C83130130F2005B08B3
:100638000739013E212B0310F20DFF3E031D1F2B2E
:10064800720880043C2B8312031358088400831714
:10065800591C83130130F2005B080739013E362B21
:100668000310F20DFF3E031D342B7208FF3A80057C
:10067800F41C3F2B402B562B580884008317591C19
:1006880083130130F2005B0CF300F30C730C073991
:10069800013E502B0310F20DFF3E031D4E2B720836
:1006A80080046C2B580884008317591C831301306D
:1006B800F2005B0CF300F30C730C0739013E662B58
:1006C8000310F20DFF3E031D642B7208FF3A8005EC
:1006D800741D6F2B702B832B580884008317591CAB
:1006E80083130130F2005C080739013E7D2B0310AB
:1006F800F20DFF3E031D7B2B72088004962B5808D1
:1007080084008317591C83130130F2005C080739F1
:10071800013E902B0310F20DFF3E031D8E2B720835
:10072800FF3A8005F41D992B9A2BB02B58088400AA
:100738008317591C83130130F2005C0CF300F30C8F
:10074800730C0739013EAA2B0310F20DFF3E031D5F
:10075800A82B72088004C62B580884008317591CDC
:1007680083130130F2005C0CF300F30C730C0739AF
:10077800013EC02B0310F20DFF3E031DBE2B720875
:10078800FF3A8005080058308400831203133D089F
:1007980083138000840A3E088000840A3F08800092
:1007A800840A40088000840A410880000030590605
:1007B800031DE02B05305806031DE32BE42BE82B23
:1007C800831603138501032C00305906031DEE2BF5
:1007D80006305806031DF12BF22BF62B8316031354
:1007E8008601032C00305906031DFC2B07305806E0
:1007F800031DFF2B002C722C8316031387011A305C
:10080800F900F830F800F80B072CF90B072C00005A
:1008180003300A128A1168250A128A110730F90072
:100828007D30F800F80B162CF90B162C03300A1241
:100838008A1168250A128A111530F900C630F800A5
:10084800F80B242CF90B242C000003300A128A110F
:1008580068250A128A1102300A128A1168250A12BA
:100868008A1102300A128A1168250A128A11083080
:100878000A128A1168250A128A1100300A128A118E
:1008880068250A128A1106300A128A1168250A1286
:100898008A110830FA007A157A08F8000430031033
:1008A800F80CFF3E031D532C78080F390A128A11E1
:1008B80068250A128A117A080F390A128A116825DE
:1008C8000A128A1100300A128A1168250A128A113E
:1008D80001300A128A1168250A128A110800F700E5
:1008E80083120313580884008317591C831301309B
:1008F800F5005A080739013E832C0310F50DFF3E19
:10090800031D812C750880047708F5000430031056
:10091800F50CFF3E031D8B2C75080F390A128A113E
:100928000D230A128A1183120313580884008317AF
:10093800591C83130130F5005A0CF600F60C760C9E
:100948000739013EA92C0310F50DFF3E031DA72C06
:10095800750880040D30F500F50BB02C83120313D5
:10096800580884008317591C83130130F5005A0C6A
:10097800F600F60C760C0739013EC42C0310F50D71
:10098800FF3E031DC22C7508FF3A800577080F3912
:100998000A128A110D230A128A11831203135808A6
:1009A80084008317591C83130130F5005A0CF60094
:1009B800F60C760C0739013EE32C0310F50DFF3ECB
:1009C800031DE12C750880040D30F500F50BEA2CA9
:1009D80083120313580884008317591C83130130AA
:1009E800F5005A0CF600F60C760C0739013EFE2C81
:1009F8000310F50DFF3E031DFC2C7508FF3A80051A
:100A0800080083120313BD003D08F90002300310EB
:100A1800F90DFF3E031D0B2D0310790D403EFA0022
:100A280004300310FA0CFF3E031D152D7A080F3908
:100A38000A128A1168250A128A11831203133D08C3
:100A4800F90002300310F90DFF3E031D262D031097
:100A5800790D403E0F390A128A1168250A128A1147
:100A680083120313BE01BF01831203133E087807E4
:100A7800F90079088400831300080A128A11732484
:100A88000A128A11013083120313BE070318BF0A22
:100A98000030BF073F08803AFF0080307F02031D07
:100AA800572D08303E02031C5A2D5B2D382D083077
:100AB8000A128A1168250A128A1100300A128A114C
:100AC80068250A128A110800F700831203135808D0
:100AD80084008317591C83130130F5005A0807391D
:100AE800013E782D0310F50DFF3E031D762D750888
:100AF800FF3A800577080A128A110D230A128A1113
:100B080083120313580884008317591C8313013078
:100B1800F5005A0CF600F60C760C0739013E962DB6
:100B28000310F50DFF3E031D942D75088004063053
:100B3800F6003030F500F50B9F2DF60B9F2D0000C9
:100B480083120313580884008317591C8313013038
:100B5800F5005A0CF600F60C760C0739013EB62D56
:100B68000310F50DFF3E031DB42D7508FF3A8005EF
:100B78000800F601F701720873040319C42DC52D86
:100B8800FA2D0130F800D12D01300310F20DF30DCC
:100B9800FF3E031DC92D0130F807F31FD42DD52DB5
:100BA800C82D01300310F60DF70DFF3E031DD62D9D
:100BB80073087502031DE22D72087402031CE52DEB
:100BC800E62DED2D7208F4027308031CF503F502F7
:100BD800761401300310F30CF20CFF3E031DEE2DCA
:100BE8000130F802031DF92DFA2DD52D7708F300F1
:100BF8007608F2000800F6000330F400F40B022E29
:100C08008330831203139F057608F4000130031024
:100C1800F40DFF3E031D0B2E0310740D9F040630C8
:100C2800F5003030F400F40B172EF50B172E0000EA
:100C3800831203139F149F18222E232E1F2E1E0883
:100C4800F300831603131E08F2000800073400346B
:100C58001A342C343E34003400340E340E34043448
:100C680015340E3404340E340E3415340E34043472
:100C780004340A3411340E340E3404340E3415346A
:100C880004340A3411347E088A007F0882000A126C
:100C98008A1147260A128A118000840A04087D06F0
:100CA80003190034FF0A0319FE0A4B2E033083167A
:100CB8000317880089018030831603139F000130D1
:100CC800831203139F0008008B1C6B2E6C2E6F2E53
:100CD8000130FB008B1071088A00700E8300FE0E35
:040CE8007E0E090073
:04400E00F12FFF3F50
:00000001FF
