:060000000A128A110C280F
:10000800FE00030EF2000A08F3000A128A111F28E4
:100018000A128A110F280A128A11BF200A128A119D
:10002800F6000A128A11C0200A128A11F700830109
:100038000A128A115728831203138C1C2428252896
:1000480050288C1007150530F100EE30F000F00B49
:100058002B28F10B2B2800007608183EF4007708AF
:100068000318013EFC3EF50044284230F000F00B36
:100078003B2800003230F4020030031CF503F5027F
:100088000030750233300319740203184C284D28C8
:10009800392883120313071173088A00720E83002C
:1000A800FE0E7E0E09000A128A11B0200A128A1169
:1000B8000A128A119C200A128A110A128A118520B2
:1000C8000A128A11831203132108A6002008A5002A
:1000D8008B132508E83EF60026080318013E033E68
:1000E800F7008B17683083120313A400E330A300D2
:1000F800A30B7C28A40B7C28812861280A128A116A
:100108000C28203083120313A200A20B89280000B8
:10011800831203139F149F18922893288F281E0870
:10012800A100831603131E0883120313A0000800FE
:10013800831603130711831203130711F93083166B
:10014800031392004F308312031392008316031394
:100158008C140B178B1708000130831603178800BF
:10016800890183160313051480309F000130831220
:0A01780003139F000800E83403346D
:04400E00F12FFF3F50
:00000001FF
