:060000000A128A11FC2F18
:100E040083160313880183120313880101308312AC
:100E1400031388000330F2000830F1007730F0004B
:100E2400F00B122FF10B122FF20B122F0230831240
:100E3400031388000330F2000830F1007730F0002B
:100E4400F00B222FF10B222FF20B222F04308312EE
:100E5400031388000330F2000830F1007730F0000B
:100E6400F00B322FF10B322FF20B322F083083129A
:100E7400031388000330F2000830F1007730F000EB
:100E8400F00B422FF10B422FF20B422F1030831242
:100E9400031388000330F2000830F1007730F000CB
:100EA400F00B522FF10B522FF20B522F20308312E2
:100EB400031388000330F2000830F1007730F000AB
:100EC400F00B622FF10B622FF20B622F4030831272
:100ED400031388000330F2000830F1007730F0008B
:100EE400F00B722FF10B722FF20B722F80308312E2
:100EF400031388000330F2000830F1007730F0006B
:100F0400F00B822FF10B822FF20B822F40308312D1
:100F1400031388000330F2000830F1007730F0004A
:100F2400F00B922FF10B922FF20B922F20308312A1
:100F3400031388000330F2000830F1007730F0002A
:100F4400F00BA22FF10BA22FF20BA22F1030831261
:100F5400031388000330F2000830F1007730F0000A
:100F6400F00BB22FF10BB22FF20BB22F0830831219
:100F7400031388000330F2000830F1007730F000EA
:100F8400F00BC22FF10BC22FF20BC22F04308312CD
:100F9400031388000330F2000830F1007730F000CA
:100FA400F00BD22FF10BD22FF20BD22F023083127F
:100FB400031388000330F2000830F1007730F000AA
:100FC400F00BE22FF10BE22FF20BE22F0130831230
:100FD400031388000330F2000830F1007730F0008A
:100FE400F00BF22FF10BF22FF20BF22F082F0A1253
:0C0FF4008A11002883010A128A11022FC2
:04400E00F12FFF3F50
:00000001FF
